{
  "_format": "hh-sol-artifact-1",
  "contractName": "PropertyRegistry",
  "sourceName": "contracts/PropertyRegistry.sol",
  "abi": [
    {
      "inputs": [],
      "stateMutability": "nonpayable",
      "type": "constructor"
    },
    {
      "inputs": [],
      "name": "AccessControlBadConfirmation",
      "type": "error"
    },
    {
      "inputs": [
        {
          "internalType": "address",
          "name": "account",
          "type": "address"
        },
        {
          "internalType": "bytes32",
          "name": "neededRole",
          "type": "bytes32"
        }
      ],
      "name": "AccessControlUnauthorizedAccount",
      "type": "error"
    },
    {
      "anonymous": false,
      "inputs": [
        {
          "indexed": true,
          "internalType": "string",
          "name": "propertyId",
          "type": "string"
        },
        {
          "indexed": true,
          "internalType": "address",
          "name": "approvedBy",
          "type": "address"
        },
        {
          "indexed": false,
          "internalType": "uint256",
          "name": "timestamp",
          "type": "uint256"
        }
      ],
      "name": "PropertyApproved",
      "type": "event"
    },
    {
      "anonymous": false,
      "inputs": [
        {
          "indexed": true,
          "internalType": "string",
          "name": "propertyId",
          "type": "string"
        },
        {
          "indexed": true,
          "internalType": "address",
          "name": "frozenBy",
          "type": "address"
        },
        {
          "indexed": false,
          "internalType": "string",
          "name": "reason",
          "type": "string"
        },
        {
          "indexed": false,
          "internalType": "uint256",
          "name": "timestamp",
          "type": "uint256"
        }
      ],
      "name": "PropertyFrozen",
      "type": "event"
    },
    {
      "anonymous": false,
      "inputs": [
        {
          "indexed": true,
          "internalType": "string",
          "name": "propertyId",
          "type": "string"
        },
        {
          "indexed": true,
          "internalType": "string",
          "name": "ownerId",
          "type": "string"
        },
        {
          "indexed": true,
          "internalType": "address",
          "name": "addedBy",
          "type": "address"
        },
        {
          "indexed": false,
          "internalType": "uint256",
          "name": "timestamp",
          "type": "uint256"
        }
      ],
      "name": "PropertyRegistered",
      "type": "event"
    },
    {
      "anonymous": false,
      "inputs": [
        {
          "indexed": true,
          "internalType": "string",
          "name": "propertyId",
          "type": "string"
        },
        {
          "indexed": true,
          "internalType": "address",
          "name": "unfrozenBy",
          "type": "address"
        },
        {
          "indexed": false,
          "internalType": "uint256",
          "name": "timestamp",
          "type": "uint256"
        }
      ],
      "name": "PropertyUnfrozen",
      "type": "event"
    },
    {
      "anonymous": false,
      "inputs": [
        {
          "indexed": true,
          "internalType": "bytes32",
          "name": "role",
          "type": "bytes32"
        },
        {
          "indexed": true,
          "internalType": "bytes32",
          "name": "previousAdminRole",
          "type": "bytes32"
        },
        {
          "indexed": true,
          "internalType": "bytes32",
          "name": "newAdminRole",
          "type": "bytes32"
        }
      ],
      "name": "RoleAdminChanged",
      "type": "event"
    },
    {
      "anonymous": false,
      "inputs": [
        {
          "indexed": true,
          "internalType": "bytes32",
          "name": "role",
          "type": "bytes32"
        },
        {
          "indexed": true,
          "internalType": "address",
          "name": "account",
          "type": "address"
        },
        {
          "indexed": true,
          "internalType": "address",
          "name": "sender",
          "type": "address"
        }
      ],
      "name": "RoleGranted",
      "type": "event"
    },
    {
      "anonymous": false,
      "inputs": [
        {
          "indexed": true,
          "internalType": "bytes32",
          "name": "role",
          "type": "bytes32"
        },
        {
          "indexed": true,
          "internalType": "address",
          "name": "account",
          "type": "address"
        },
        {
          "indexed": true,
          "internalType": "address",
          "name": "sender",
          "type": "address"
        }
      ],
      "name": "RoleRevoked",
      "type": "event"
    },
    {
      "inputs": [],
      "name": "DEFAULT_ADMIN_ROLE",
      "outputs": [
        {
          "internalType": "bytes32",
          "name": "",
          "type": "bytes32"
        }
      ],
      "stateMutability": "view",
      "type": "function"
    },
    {
      "inputs": [],
      "name": "LRO_ROLE",
      "outputs": [
        {
          "internalType": "bytes32",
          "name": "",
          "type": "bytes32"
        }
      ],
      "stateMutability": "view",
      "type": "function"
    },
    {
      "inputs": [],
      "name": "TEHSILDAR_ROLE",
      "outputs": [
        {
          "internalType": "bytes32",
          "name": "",
          "type": "bytes32"
        }
      ],
      "stateMutability": "view",
      "type": "function"
    },
    {
      "inputs": [
        {
          "internalType": "string",
          "name": "_propertyId",
          "type": "string"
        }
      ],
      "name": "approveProperty",
      "outputs": [
        {
          "internalType": "bool",
          "name": "",
          "type": "bool"
        }
      ],
      "stateMutability": "nonpayable",
      "type": "function"
    },
    {
      "inputs": [
        {
          "internalType": "string",
          "name": "_propertyId",
          "type": "string"
        },
        {
          "internalType": "string",
          "name": "_reason",
          "type": "string"
        }
      ],
      "name": "freezeProperty",
      "outputs": [
        {
          "internalType": "bool",
          "name": "",
          "type": "bool"
        }
      ],
      "stateMutability": "nonpayable",
      "type": "function"
    },
    {
      "inputs": [
        {
          "internalType": "string",
          "name": "_cnic",
          "type": "string"
        }
      ],
      "name": "getOwnerProperties",
      "outputs": [
        {
          "internalType": "string[]",
          "name": "",
          "type": "string[]"
        }
      ],
      "stateMutability": "view",
      "type": "function"
    },
    {
      "inputs": [
        {
          "internalType": "string",
          "name": "_propertyId",
          "type": "string"
        }
      ],
      "name": "getProperty",
      "outputs": [
        {
          "components": [
            {
              "internalType": "string",
              "name": "propertyId",
              "type": "string"
            },
            {
              "internalType": "string",
              "name": "ownerId",
              "type": "string"
            },
            {
              "internalType": "string",
              "name": "ownerName",
              "type": "string"
            },
            {
              "internalType": "string",
              "name": "ownerCnic",
              "type": "string"
            },
            {
              "internalType": "string",
              "name": "fatherName",
              "type": "string"
            },
            {
              "internalType": "string",
              "name": "fardNo",
              "type": "string"
            },
            {
              "internalType": "string",
              "name": "khasraNo",
              "type": "string"
            },
            {
              "internalType": "string",
              "name": "khatooniNo",
              "type": "string"
            },
            {
              "internalType": "uint256",
              "name": "areaMarla",
              "type": "uint256"
            },
            {
              "internalType": "string",
              "name": "propertyType",
              "type": "string"
            },
            {
              "internalType": "string",
              "name": "district",
              "type": "string"
            },
            {
              "internalType": "string",
              "name": "tehsil",
              "type": "string"
            },
            {
              "internalType": "string",
              "name": "documentHash",
              "type": "string"
            },
            {
              "internalType": "uint256",
              "name": "registrationDate",
              "type": "uint256"
            },
            {
              "internalType": "address",
              "name": "addedBy",
              "type": "address"
            },
            {
              "internalType": "address",
              "name": "approvedBy",
              "type": "address"
            },
            {
              "internalType": "bool",
              "name": "isApproved",
              "type": "bool"
            },
            {
              "internalType": "bool",
              "name": "isFrozen",
              "type": "bool"
            },
            {
              "internalType": "enum PropertyRegistry.PropertyStatus",
              "name": "status",
              "type": "uint8"
            }
          ],
          "internalType": "struct PropertyRegistry.Property",
          "name": "",
          "type": "tuple"
        }
      ],
      "stateMutability": "view",
      "type": "function"
    },
    {
      "inputs": [
        {
          "internalType": "bytes32",
          "name": "role",
          "type": "bytes32"
        }
      ],
      "name": "getRoleAdmin",
      "outputs": [
        {
          "internalType": "bytes32",
          "name": "",
          "type": "bytes32"
        }
      ],
      "stateMutability": "view",
      "type": "function"
    },
    {
      "inputs": [
        {
          "internalType": "address",
          "name": "_account",
          "type": "address"
        }
      ],
      "name": "grantLRORole",
      "outputs": [],
      "stateMutability": "nonpayable",
      "type": "function"
    },
    {
      "inputs": [
        {
          "internalType": "bytes32",
          "name": "role",
          "type": "bytes32"
        },
        {
          "internalType": "address",
          "name": "account",
          "type": "address"
        }
      ],
      "name": "grantRole",
      "outputs": [],
      "stateMutability": "nonpayable",
      "type": "function"
    },
    {
      "inputs": [
        {
          "internalType": "address",
          "name": "_account",
          "type": "address"
        }
      ],
      "name": "grantTehsildarRole",
      "outputs": [],
      "stateMutability": "nonpayable",
      "type": "function"
    },
    {
      "inputs": [
        {
          "internalType": "bytes32",
          "name": "role",
          "type": "bytes32"
        },
        {
          "internalType": "address",
          "name": "account",
          "type": "address"
        }
      ],
      "name": "hasRole",
      "outputs": [
        {
          "internalType": "bool",
          "name": "",
          "type": "bool"
        }
      ],
      "stateMutability": "view",
      "type": "function"
    },
    {
      "inputs": [
        {
          "internalType": "string",
          "name": "",
          "type": "string"
        },
        {
          "internalType": "uint256",
          "name": "",
          "type": "uint256"
        }
      ],
      "name": "ownerProperties",
      "outputs": [
        {
          "internalType": "string",
          "name": "",
          "type": "string"
        }
      ],
      "stateMutability": "view",
      "type": "function"
    },
    {
      "inputs": [
        {
          "internalType": "string",
          "name": "",
          "type": "string"
        }
      ],
      "name": "properties",
      "outputs": [
        {
          "internalType": "string",
          "name": "propertyId",
          "type": "string"
        },
        {
          "internalType": "string",
          "name": "ownerId",
          "type": "string"
        },
        {
          "internalType": "string",
          "name": "ownerName",
          "type": "string"
        },
        {
          "internalType": "string",
          "name": "ownerCnic",
          "type": "string"
        },
        {
          "internalType": "string",
          "name": "fatherName",
          "type": "string"
        },
        {
          "internalType": "string",
          "name": "fardNo",
          "type": "string"
        },
        {
          "internalType": "string",
          "name": "khasraNo",
          "type": "string"
        },
        {
          "internalType": "string",
          "name": "khatooniNo",
          "type": "string"
        },
        {
          "internalType": "uint256",
          "name": "areaMarla",
          "type": "uint256"
        },
        {
          "internalType": "string",
          "name": "propertyType",
          "type": "string"
        },
        {
          "internalType": "string",
          "name": "district",
          "type": "string"
        },
        {
          "internalType": "string",
          "name": "tehsil",
          "type": "string"
        },
        {
          "internalType": "string",
          "name": "documentHash",
          "type": "string"
        },
        {
          "internalType": "uint256",
          "name": "registrationDate",
          "type": "uint256"
        },
        {
          "internalType": "address",
          "name": "addedBy",
          "type": "address"
        },
        {
          "internalType": "address",
          "name": "approvedBy",
          "type": "address"
        },
        {
          "internalType": "bool",
          "name": "isApproved",
          "type": "bool"
        },
        {
          "internalType": "bool",
          "name": "isFrozen",
          "type": "bool"
        },
        {
          "internalType": "enum PropertyRegistry.PropertyStatus",
          "name": "status",
          "type": "uint8"
        }
      ],
      "stateMutability": "view",
      "type": "function"
    },
    {
      "inputs": [
        {
          "internalType": "string",
          "name": "",
          "type": "string"
        }
      ],
      "name": "propertyExists",
      "outputs": [
        {
          "internalType": "bool",
          "name": "",
          "type": "bool"
        }
      ],
      "stateMutability": "view",
      "type": "function"
    },
    {
      "inputs": [
        {
          "internalType": "string",
          "name": "_propertyId",
          "type": "string"
        },
        {
          "internalType": "string",
          "name": "_ownerId",
          "type": "string"
        },
        {
          "internalType": "string",
          "name": "_ownerName",
          "type": "string"
        },
        {
          "internalType": "string",
          "name": "_ownerCnic",
          "type": "string"
        },
        {
          "internalType": "string",
          "name": "_fatherName",
          "type": "string"
        },
        {
          "internalType": "string",
          "name": "_fardNo",
          "type": "string"
        },
        {
          "internalType": "string",
          "name": "_khasraNo",
          "type": "string"
        },
        {
          "internalType": "string",
          "name": "_khatooniNo",
          "type": "string"
        },
        {
          "internalType": "uint256",
          "name": "_areaMarla",
          "type": "uint256"
        },
        {
          "internalType": "string",
          "name": "_propertyType",
          "type": "string"
        },
        {
          "internalType": "string",
          "name": "_district",
          "type": "string"
        },
        {
          "internalType": "string",
          "name": "_tehsil",
          "type": "string"
        },
        {
          "internalType": "string",
          "name": "_documentHash",
          "type": "string"
        }
      ],
      "name": "registerProperty",
      "outputs": [
        {
          "internalType": "bool",
          "name": "",
          "type": "bool"
        }
      ],
      "stateMutability": "nonpayable",
      "type": "function"
    },
    {
      "inputs": [
        {
          "internalType": "bytes32",
          "name": "role",
          "type": "bytes32"
        },
        {
          "internalType": "address",
          "name": "callerConfirmation",
          "type": "address"
        }
      ],
      "name": "renounceRole",
      "outputs": [],
      "stateMutability": "nonpayable",
      "type": "function"
    },
    {
      "inputs": [
        {
          "internalType": "bytes32",
          "name": "role",
          "type": "bytes32"
        },
        {
          "internalType": "address",
          "name": "account",
          "type": "address"
        }
      ],
      "name": "revokeRole",
      "outputs": [],
      "stateMutability": "nonpayable",
      "type": "function"
    },
    {
      "inputs": [
        {
          "internalType": "bytes4",
          "name": "interfaceId",
          "type": "bytes4"
        }
      ],
      "name": "supportsInterface",
      "outputs": [
        {
          "internalType": "bool",
          "name": "",
          "type": "bool"
        }
      ],
      "stateMutability": "view",
      "type": "function"
    },
    {
      "inputs": [
        {
          "internalType": "string",
          "name": "_propertyId",
          "type": "string"
        }
      ],
      "name": "unfreezeProperty",
      "outputs": [
        {
          "internalType": "bool",
          "name": "",
          "type": "bool"
        }
      ],
      "stateMutability": "nonpayable",
      "type": "function"
    }
  ],
  "bytecode": "0x6080604052346100225761001233610027565b50604051611d3090816100b88239f35b600080fd5b6001600160a01b031660008181527fad3228b676f7d3cd4284a5443f17f1962b36e491b30a40b2405849e597ba5fb5602052604081205490919060ff166100b357818052816020526040822081835260205260408220600160ff1982541617905533917f2f8788117e7eff1d82e926ec794901d17c78024a50270940304540a733656f0d8180a4600190565b509056fe60a080604052600436101561001357600080fd5b60003560e01c90816301ffc9a71461158f575080630a3314d314611463578063248a9ca314611434578063286e98e1146113c9578063287283f11461137b5780632f2ff15d1461133c57806336568abe146112f5578063449d37c2146112cc5780634e22432b146111bf5780635c4cc1e1146110325780635da3b68314610b035780635f6c49ea14610ada578063672037cd14610a6f57806391d1485414610a2257806396530199146108935780639be8f2a614610622578063a217fddf14610606578063ab331a34146101e8578063d06e0722146101415763d547741f146100fb57600080fd5b3461013c57604036600319011261013c5761013a60043561011a61168b565b908060005260006020526101356001604060002001546118f0565b611aca565b005b600080fd5b3461013c57604036600319011261013c576004356001600160401b03811161013c5761017190369060040161161f565b61018d60206024359281604051938285809451938492016116a1565b8101600381520301902090815481101561013c576101aa916117d6565b6101d2576101ba6101ce91611723565b6040519182916020835260208301906116c4565b0390f35b634e487b7160e01b600052600060045260246000fd5b3461013c57602036600319011261013c576004356001600160401b03811161013c57602061021d6102ec92369060040161161f565b600061024060405161022e816115e2565b606081526060858201526060604082015260608082015260606080820152606060a0820152606060c0820152606060e0820152826101008201526060610120820152606061014082015260606101608201526060610180820152826101a0820152826101c0820152826101e082015282610200820152826102208201520152604051906102db60ff8251938581818601966102ca81838a6116a1565b810160028152030190205416611c6e565b6040519384928392519283916116a1565b81016001815203019020600f60405191610305836115e2565b61030e81611723565b835261031c60018201611723565b602084015261032d60028201611723565b604084015261033e60038201611723565b606084015261034f60048201611723565b608084015261036060058201611723565b60a084015261037160068201611723565b60c084015261038260078201611723565b60e0840152600881015461010084015261039e60098201611723565b6101208401526103b0600a8201611723565b6101408401526103c2600b8201611723565b6101608401526103d4600c8201611723565b610180840152600d8101546101a084015260018060a01b03600e820154166101c0840152015460018060a01b0381166101e083015260ff8160a01c16151561020083015260ff8160a81c161515610220830152600560ff8260b01c1610156105f05760ff9060b01c166102408201526040518091602082526101ce61024061059461057c61056461054c6105286105116104fb6104e56104cf8b8d60606104ba6104a561048f855161026060208701526102808601906116c4565b6020860151858203601f190160408701526116c4565b6040850151848203601f1901848601526116c4565b920151906080601f19828503019101526116c4565b60808c01518d8203601f190160a08f01526116c4565b60a08b01518c8203601f190160c08e01526116c4565b60c08a01518b8203601f190160e08d01526116c4565b60e08901518a8203601f19016101008c01526116c4565b6101008801516101208a0152610120880151601f198a8303016101408b01526116c4565b610140870151888203601f19016101608a01526116c4565b610160860151878203601f19016101808901526116c4565b610180850151868203601f19016101a08801526116c4565b926101a08101516101c086015260018060a01b036101c0820151166101e086015260018060a01b036101e082015116610200860152610200810151151561022086015261022081015115158286015201516102608401906117c9565b634e487b7160e01b600052602160045260246000fd5b3461013c57600036600319011261013c57602060405160008152f35b3461013c57602036600319011261013c576004356001600160401b03811161013c5761065290369060040161161f565b6040518181809351602081930191610669926116a1565b81016001815203602001902061067e81611723565b61068a60018301611723565b9161069760028201611723565b6106a360038301611723565b6106af60048401611723565b6106bb60058501611723565b6106c760068601611723565b6106d360078701611723565b6008870154916106e560098901611723565b936106f2600a8a01611723565b956106ff600b8b01611723565b9761070c600c8c01611723565b99600d8c01549d8c600160a01b6001900390600e0154169c600f01549d6040518060805261026080915260805101610743916116c4565b6080518082039060200152610757916116c4565b608051808203906040015261076b916116c4565b608051808203906060015261077f916116c4565b6080518082039060800152610793916116c4565b6080518082039060a001526107a7916116c4565b6080518082039060c001526107bb916116c4565b6080518082039060e001526107cf916116c4565b9060805161010001526080518082039061012001526107ed916116c4565b608051808203906101400152610802916116c4565b608051808203906101600152610817916116c4565b60805180820390610180015261082c916116c4565b926080516101a001526080516101c00152600160a01b6001900381166080516101e001528060a01c60ff16151560805161020001528060a81c60ff1615156080516102200152608051610240019060b01c60ff169061088a916117c9565b60805180910390f35b3461013c5760208060031936011261013c576004356001600160401b03811161013c576108c490369060040161161f565b6108cc6118a6565b6040516108e860ff8351928581818701956102ca8183896116a1565b60ff600f604051858186516108fe8183896116a1565b81016001815203019020015460a01c166109ea5790600f610992846109b59483604051838188516109308183886116a1565b8101600181520301902001600160a01b60ff60a01b19825416179055836040518381885161095f8183886116a1565b8101600181520301902001336bffffffffffffffffffffffff60a01b8254161790556040518093819287519283916116a1565b60019082019081520301902001805460ff60b01b1916600160b01b179055611c4e565b604051904282527fdc67450da5ba97f56f673a8bfa2a9bc155cb229647d08e2816a25c06909a47a8833393a360405160018152f35b60405162461bcd60e51b815260048101849052601060248201526f105b1c9958591e48185c1c1c9bdd995960821b6044820152606490fd5b3461013c57604036600319011261013c57610a3b61168b565b600435600052600060205260406000209060018060a01b0316600052602052602060ff604060002054166040519015158152f35b3461013c57602036600319011261013c5761013a610a8b611675565b610a9361186c565b600080516020611cbb83398151915260009081526020527f93448e077baa9f1f1990beb53e302494bb36d2fe3a11944845dfdb71d35ac06554610ad5906118f0565b6119b6565b3461013c57600036600319011261013c576020604051600080516020611cdb8339815191528152f35b3461013c576101a036600319011261013c576001600160401b0360043581811161013c57610b3590369060040161161f565b60243582811161013c57610b4d90369060040161161f565b9160443581811161013c57610b6690369060040161161f565b60643582811161013c57610b7e90369060040161161f565b9160843581811161013c57610b9790369060040161161f565b9060a43581811161013c57610bb090369060040161161f565b60c43582811161013c57610bc890369060040161161f565b60e43583811161013c57610be090369060040161161f565b6101243584811161013c57610bf990369060040161161f565b916101443585811161013c57610c1390369060040161161f565b936101643586811161013c57610c2d90369060040161161f565b95610184351161013c57610c47366101843560040161161f565b96610c506118a6565b60ff610c6b60208d81604051938285809451938492016116a1565b810160028152030190205416610fed578a5115610fb1578b5115610f785760405198610c968a6115e2565b8b8a528c60208b015260408a01528960608a0152608089015260a088015260c087015260e086015261010435610100860152610120850152610140840152610160830152610180820152426101a0820152336101c082015260006101e08201526000610200820152600061022082015260006102408201526040516020818551610d238183858a016116a1565b8101600181520301902091610d39825184611b3f565b610d4a602083015160018501611b3f565b610d5b604083015160028501611b3f565b610d6c606083015160038501611b3f565b610d7d608083015160048501611b3f565b610d8e60a083015160058501611b3f565b610d9f60c083015160068501611b3f565b610db060e083015160078501611b3f565b6101008201516008840155610dcd61012083015160098501611b3f565b610ddf610140830151600a8501611b3f565b610df1610160830151600b8501611b3f565b610e03610180830151600c8501611b3f565b6101a0820151600d8401556101c0820151600e840180546001600160a01b0319166001600160a01b039283161790556101e0830151600f90940180546102008501516102208601516102409096015196909316959491929091151560a81b60ff60a81b1690151560a01b60ff60a01b1660058610156105f057610ede9660209660ff60b01b9060b01b169368ffffffffffffffffff60b81b1617171717905560405182818651610eb68183858b016116a1565b81016002815203019020600160ff1982541617905581604051938285809451938492016116a1565b81016003815203019020805468010000000000000000811015610f6257610f0a916001820181556117d6565b6101d25781610f1f610f2a93610f2493611b3f565b611c4e565b91611c4e565b604051914283527fbaf6e1f686649127444e446a1d7f9614856ecceca8b95ee1f76230584f42e8ec60203394a4602060405160018152f35b634e487b7160e01b600052604160045260246000fd5b60405162461bcd60e51b815260206004820152601160248201527013dddb995c881251081c995c5d5a5c9959607a1b6044820152606490fd5b60405162461bcd60e51b8152602060048201526014602482015273141c9bdc195c9d1e481251081c995c5d5a5c995960621b6044820152606490fd5b60405162461bcd60e51b815260206004820152601760248201527f50726f706572747920616c7265616479206578697374730000000000000000006044820152606490fd5b3461013c57604036600319011261013c576001600160401b0360043581811161013c5761106390369060040161161f565b9060243590811161013c5761107c90369060040161161f565b611084611804565b6040519180516110a360ff6020958681818701956102ca8183896116a1565b60ff600f604051868186516110b98183896116a1565b81016001815203019020015460a81c166111895790600f61111b8561113e9483604051838188516110eb8183886116a1565b60019082019081520301902001805460ff60a81b1916600160a81b179055604051855190938492829084906116a1565b60019082019081520301902001805460ff60b01b1916600360b01b179055611c4e565b7f853c948092888845e1d6b2e6e9bf766337ccf85b4916d54635ceef7912588042611174604051936040855260408501906116c4565b9242858201528033940390a360405160018152f35b60405162461bcd60e51b815260048101859052600e60248201526d20b63932b0b23c90333937bd32b760911b6044820152606490fd5b3461013c5760208060031936011261013c576001600160401b0360043581811161013c57826111f561120892369060040161161f565b81604051938285809451938492016116a1565b810160038152030190208054918211610f6257829060405192611230838260051b01856115fe565b8084528284018092600052836000206000915b8383106112aa5750505050604051918083019381845251809452604083019360408160051b85010192916000955b82871061127e5785850386f35b90919293828061129a600193603f198a820301865288516116c4565b9601920196019592919092611271565b60018681926112bb859a999a611723565b815201920192019190959495611243565b3461013c57600036600319011261013c576020604051600080516020611cbb8339815191528152f35b3461013c57604036600319011261013c5761130e61168b565b336001600160a01b0382160361132a5761013a90600435611aca565b60405163334bd91960e11b8152600490fd5b3461013c57604036600319011261013c5761013a60043561135b61168b565b908060005260006020526113766001604060002001546118f0565b611a51565b3461013c57602036600319011261013c576004356001600160401b03811161013c5760ff6113b360206111f58194369060040161161f565b8101600281520301902054166040519015158152f35b3461013c57602036600319011261013c5761013a6113e5611675565b6113ed61186c565b600080516020611cdb83398151915260009081526020527fa64e760fa10cf8af24da398951e54cb88533db46dcd0c44f1957b03d800be2435461142f906118f0565b611916565b3461013c57602036600319011261013c5760043560005260006020526020600160406000200154604051908152f35b3461013c5760208060031936011261013c576004356001600160401b03811161013c5761149490369060040161161f565b61149c611804565b6040516114b860ff8351928581818701956102ca8183896116a1565b60ff600f604051858186516114ce8183896116a1565b81016001815203019020015460a81c161561155d5790600f610992846115289483604051838188516115018183886116a1565b810160018152030190200160ff60a81b1981541690556040518093819287519283916116a1565b604051904282527fea2e83df0903c28b1ee2c10b6b07f5233aca0eec8a7ba832d824a0a320f9342b833393a360405160018152f35b60405162461bcd60e51b815260048101849052600a6024820152692737ba10333937bd32b760b11b6044820152606490fd5b3461013c57602036600319011261013c576004359063ffffffff60e01b821680920361013c57602091637965db0b60e01b81149081156115d1575b5015158152f35b6301ffc9a760e01b149050836115ca565b61026081019081106001600160401b03821117610f6257604052565b90601f801991011681019081106001600160401b03821117610f6257604052565b81601f8201121561013c578035906001600160401b038211610f625760405192611653601f8401601f1916602001856115fe565b8284526020838301011161013c57816000926020809301838601378301015290565b600435906001600160a01b038216820361013c57565b602435906001600160a01b038216820361013c57565b60005b8381106116b45750506000910152565b81810151838201526020016116a4565b906020916116dd815180928185528580860191016116a1565b601f01601f1916010190565b90600182811c92168015611719575b602083101461170357565b634e487b7160e01b600052602260045260246000fd5b91607f16916116f8565b9060405191826000825492611737846116e9565b9081845260019485811690816000146117a65750600114611763575b5050611761925003836115fe565b565b9093915060005260209081600020936000915b81831061178e57505061176193508201013880611753565b85548884018501529485019487945091830191611776565b91505061176194506020925060ff191682840152151560051b8201013880611753565b9060058210156105f05752565b80548210156117ee5760005260206000200190600090565b634e487b7160e01b600052603260045260246000fd5b3360009081527fa64e760fa10cf8af24da398951e54cb88533db46dcd0c44f1957b03d800be2426020526040902054600080516020611cdb8339815191529060ff161561184e5750565b6044906040519063e2517d3f60e01b82523360048301526024820152fd5b3360009081527fad3228b676f7d3cd4284a5443f17f1962b36e491b30a40b2405849e597ba5fb5602052604081205460ff161561184e5750565b3360009081527f93448e077baa9f1f1990beb53e302494bb36d2fe3a11944845dfdb71d35ac0646020526040902054600080516020611cbb8339815191529060ff161561184e5750565b80600052600060205260406000203360005260205260ff604060002054161561184e5750565b6001600160a01b031660008181527fa64e760fa10cf8af24da398951e54cb88533db46dcd0c44f1957b03d800be2426020526040812054909190600080516020611cdb8339815191529060ff166119b157808352826020526040832082845260205260408320600160ff198254161790557f2f8788117e7eff1d82e926ec794901d17c78024a50270940304540a733656f0d339380a4600190565b505090565b6001600160a01b031660008181527f93448e077baa9f1f1990beb53e302494bb36d2fe3a11944845dfdb71d35ac0646020526040812054909190600080516020611cbb8339815191529060ff166119b157808352826020526040832082845260205260408320600160ff198254161790557f2f8788117e7eff1d82e926ec794901d17c78024a50270940304540a733656f0d339380a4600190565b9060009180835282602052604083209160018060a01b03169182845260205260ff604084205416156000146119b157808352826020526040832082845260205260408320600160ff198254161790557f2f8788117e7eff1d82e926ec794901d17c78024a50270940304540a733656f0d339380a4600190565b9060009180835282602052604083209160018060a01b03169182845260205260ff6040842054166000146119b15780835282602052604083208284526020526040832060ff1981541690557ff6391f5c32d9c69d2a47ea670b442974b53935d1edc7fd64eb21e047a839171b339380a4600190565b91909182516001600160401b038111610f6257611b5c82546116e9565b601f8111611c06575b50602080601f8311600114611ba2575081929394600092611b97575b50508160011b916000199060031b1c1916179055565b015190503880611b81565b90601f198316958460005282600020926000905b888210611bee57505083600195969710611bd5575b505050811b019055565b015160001960f88460031b161c19169055388080611bcb565b80600185968294968601518155019501930190611bb6565b600083815260208120601f840160051c81019260208510611c44575b601f0160051c01915b828110611c39575050611b65565b818155600101611c2b565b9092508290611c22565b611c66906020604051928284809451938492016116a1565b810103902090565b15611c7557565b60405162461bcd60e51b815260206004820152601760248201527f50726f706572747920646f6573206e6f742065786973740000000000000000006044820152606490fdfed56e9b36a6bb6ccf81c326090d5d6b5f0d6a58c2373adc2cf81a508f211cfb3925e4229ee368ad63b1bdff8c00b38fac6bfb78fbb3fe3aae36beb769834e77a3a2646970667358221220f54c594e094d5140258335e80d781a727308b889655fea27f30900c17324481464736f6c63430008140033",
  "linkReferences": {},
  "deployedLinkReferences": {}
}