{"contracts/PropertyRegistry.sol":{"PropertyRegistry":{"abi":[{"inputs":[],"stateMutability":"nonpayable","type":"constructor"},{"inputs":[],"name":"AccessControlBadConfirmation","type":"error"},{"inputs":[{"internalType":"address","name":"account","type":"address"},{"internalType":"bytes32","name":"neededRole","type":"bytes32"}],"name":"AccessControlUnauthorizedAccount","type":"error"},{"anonymous":false,"inputs":[{"indexed":true,"internalType":"string","name":"propertyId","type":"string"},{"indexed":true,"internalType":"address","name":"approvedBy","type":"address"},{"indexed":false,"internalType":"uint256","name":"timestamp","type":"uint256"}],"name":"PropertyApproved","type":"event"},{"anonymous":false,"inputs":[{"indexed":true,"internalType":"string","name":"propertyId","type":"string"},{"indexed":true,"internalType":"address","name":"frozenBy","type":"address"},{"indexed":false,"internalType":"string","name":"reason","type":"string"},{"indexed":false,"internalType":"uint256","name":"timestamp","type":"uint256"}],"name":"PropertyFrozen","type":"event"},{"anonymous":false,"inputs":[{"indexed":true,"internalType":"string","name":"propertyId","type":"string"},{"indexed":true,"internalType":"string","name":"ownerId","type":"string"},{"indexed":true,"internalType":"address","name":"addedBy","type":"address"},{"indexed":false,"internalType":"uint256","name":"timestamp","type":"uint256"}],"name":"PropertyRegistered","type":"event"},{"anonymous":false,"inputs":[{"indexed":true,"internalType":"string","name":"propertyId","type":"string"},{"indexed":true,"internalType":"address","name":"unfrozenBy","type":"address"},{"indexed":false,"internalType":"uint256","name":"timestamp","type":"uint256"}],"name":"PropertyUnfrozen","type":"event"},{"anonymous":false,"inputs":[{"indexed":true,"internalType":"bytes32","name":"role","type":"bytes32"},{"indexed":true,"internalType":"bytes32","name":"previousAdminRole","type":"bytes32"},{"indexed":true,"internalType":"bytes32","name":"newAdminRole","type":"bytes32"}],"name":"RoleAdminChanged","type":"event"},{"anonymous":false,"inputs":[{"indexed":true,"internalType":"bytes32","name":"role","type":"bytes32"},{"indexed":true,"internalType":"address","name":"account","type":"address"},{"indexed":true,"internalType":"address","name":"sender","type":"address"}],"name":"RoleGranted","type":"event"},{"anonymous":false,"inputs":[{"indexed":true,"internalType":"bytes32","name":"role","type":"bytes32"},{"indexed":true,"internalType":"address","name":"account","type":"address"},{"indexed":true,"internalType":"address","name":"sender","type":"address"}],"name":"RoleRevoked","type":"event"},{"inputs":[],"name":"DEFAULT_ADMIN_ROLE","outputs":[{"internalType":"bytes32","name":"","type":"bytes32"}],"stateMutability":"view","type":"function"},{"inputs":[],"name":"LRO_ROLE","outputs":[{"internalType":"bytes32","name":"","type":"bytes32"}],"stateMutability":"view","type":"function"},{"inputs":[],"name":"TEHSILDAR_ROLE","outputs":[{"internalType":"bytes32","name":"","type":"bytes32"}],"stateMutability":"view","type":"function"},{"inputs":[{"internalType":"string","name":"_propertyId","type":"string"}],"name":"approveProperty","outputs":[{"internalType":"bool","name":"","type":"bool"}],"stateMutability":"nonpayable","type":"function"},{"inputs":[{"internalType":"string","name":"_propertyId","type":"string"},{"internalType":"string","name":"_reason","type":"string"}],"name":"freezeProperty","outputs":[{"internalType":"bool","name":"","type":"bool"}],"stateMutability":"nonpayable","type":"function"},{"inputs":[{"internalType":"string","name":"_cnic","type":"string"}],"name":"getOwnerProperties","outputs":[{"internalType":"string[]","name":"","type":"string[]"}],"stateMutability":"view","type":"function"},{"inputs":[{"internalType":"string","name":"_propertyId","type":"string"}],"name":"getProperty","outputs":[{"components":[{"internalType":"string","name":"propertyId","type":"string"},{"internalType":"string","name":"ownerId","type":"string"},{"internalType":"string","name":"ownerName","type":"string"},{"internalType":"string","name":"ownerCnic","type":"string"},{"internalType":"string","name":"fatherName","type":"string"},{"internalType":"string","name":"fardNo","type":"string"},{"internalType":"string","name":"khasraNo","type":"string"},{"internalType":"string","name":"khatooniNo","type":"string"},{"internalType":"uint256","name":"areaMarla","type":"uint256"},{"internalType":"string","name":"propertyType","type":"string"},{"internalType":"string","name":"district","type":"string"},{"internalType":"string","name":"tehsil","type":"string"},{"internalType":"string","name":"documentHash","type":"string"},{"internalType":"uint256","name":"registrationDate","type":"uint256"},{"internalType":"address","name":"addedBy","type":"address"},{"internalType":"address","name":"approvedBy","type":"address"},{"internalType":"bool","name":"isApproved","type":"bool"},{"internalType":"bool","name":"isFrozen","type":"bool"},{"internalType":"enum PropertyRegistry.PropertyStatus","name":"status","type":"uint8"}],"internalType":"struct PropertyRegistry.Property","name":"","type":"tuple"}],"stateMutability":"view","type":"function"},{"inputs":[{"internalType":"bytes32","name":"role","type":"bytes32"}],"name":"getRoleAdmin","outputs":[{"internalType":"bytes32","name":"","type":"bytes32"}],"stateMutability":"view","type":"function"},{"inputs":[{"internalType":"address","name":"_account","type":"address"}],"name":"grantLRORole","outputs":[],"stateMutability":"nonpayable","type":"function"},{"inputs":[{"internalType":"bytes32","name":"role","type":"bytes32"},{"internalType":"address","name":"account","type":"address"}],"name":"grantRole","outputs":[],"stateMutability":"nonpayable","type":"function"},{"inputs":[{"internalType":"address","name":"_account","type":"address"}],"name":"grantTehsildarRole","outputs":[],"stateMutability":"nonpayable","type":"function"},{"inputs":[{"internalType":"bytes32","name":"role","type":"bytes32"},{"internalType":"address","name":"account","type":"address"}],"name":"hasRole","outputs":[{"internalType":"bool","name":"","type":"bool"}],"stateMutability":"view","type":"function"},{"inputs":[{"internalType":"string","name":"","type":"string"},{"internalType":"uint256","name":"","type":"uint256"}],"name":"ownerProperties","outputs":[{"internalType":"string","name":"","type":"string"}],"stateMutability":"view","type":"function"},{"inputs":[{"internalType":"string","name":"","type":"string"}],"name":"properties","outputs":[{"internalType":"string","name":"propertyId","type":"string"},{"internalType":"string","name":"ownerId","type":"string"},{"internalType":"string","name":"ownerName","type":"string"},{"internalType":"string","name":"ownerCnic","type":"string"},{"internalType":"string","name":"fatherName","type":"string"},{"internalType":"string","name":"fardNo","type":"string"},{"internalType":"string","name":"khasraNo","type":"string"},{"internalType":"string","name":"khatooniNo","type":"string"},{"internalType":"uint256","name":"areaMarla","type":"uint256"},{"internalType":"string","name":"propertyType","type":"string"},{"internalType":"string","name":"district","type":"string"},{"internalType":"string","name":"tehsil","type":"string"},{"internalType":"string","name":"documentHash","type":"string"},{"internalType":"uint256","name":"registrationDate","type":"uint256"},{"internalType":"address","name":"addedBy","type":"address"},{"internalType":"address","name":"approvedBy","type":"address"},{"internalType":"bool","name":"isApproved","type":"bool"},{"internalType":"bool","name":"isFrozen","type":"bool"},{"internalType":"enum PropertyRegistry.PropertyStatus","name":"status","type":"uint8"}],"stateMutability":"view","type":"function"},{"inputs":[{"internalType":"string","name":"","type":"string"}],"name":"propertyExists","outputs":[{"internalType":"bool","name":"","type":"bool"}],"stateMutability":"view","type":"function"},{"inputs":[{"internalType":"string","name":"_propertyId","type":"string"},{"internalType":"string","name":"_ownerId","type":"string"},{"internalType":"string","name":"_ownerName","type":"string"},{"internalType":"string","name":"_ownerCnic","type":"string"},{"internalType":"string","name":"_fatherName","type":"string"},{"internalType":"string","name":"_fardNo","type":"string"},{"internalType":"string","name":"_khasraNo","type":"string"},{"internalType":"string","name":"_khatooniNo","type":"string"},{"internalType":"uint256","name":"_areaMarla","type":"uint256"},{"internalType":"string","name":"_propertyType","type":"string"},{"internalType":"string","name":"_district","type":"string"},{"internalType":"string","name":"_tehsil","type":"string"},{"internalType":"string","name":"_documentHash","type":"string"}],"name":"registerProperty","outputs":[{"internalType":"bool","name":"","type":"bool"}],"stateMutability":"nonpayable","type":"function"},{"inputs":[{"internalType":"bytes32","name":"role","type":"bytes32"},{"internalType":"address","name":"callerConfirmation","type":"address"}],"name":"renounceRole","outputs":[],"stateMutability":"nonpayable","type":"function"},{"inputs":[{"internalType":"bytes32","name":"role","type":"bytes32"},{"internalType":"address","name":"account","type":"address"}],"name":"revokeRole","outputs":[],"stateMutability":"nonpayable","type":"function"},{"inputs":[{"internalType":"bytes4","name":"interfaceId","type":"bytes4"}],"name":"supportsInterface","outputs":[{"internalType":"bool","name":"","type":"bool"}],"stateMutability":"view","type":"function"},{"inputs":[{"internalType":"string","name":"_propertyId","type":"string"}],"name":"unfreezeProperty","outputs":[{"internalType":"bool","name":"","type":"bool"}],"stateMutability":"nonpayable","type":"function"}],"evm":{"bytecode":{"linkReferences":{},"object":"6080604052346100225761001233610027565b50604051611d3090816100b88239f35b600080fd5b6001600160a01b031660008181527fad3228b676f7d3cd4284a5443f17f1962b36e491b30a40b2405849e597ba5fb5602052604081205490919060ff166100b357818052816020526040822081835260205260408220600160ff1982541617905533917f2f8788117e7eff1d82e926ec794901d17c78024a50270940304540a733656f0d8180a4600190565b509056fe60a080604052600436101561001357600080fd5b60003560e01c90816301ffc9a71461158f575080630a3314d314611463578063248a9ca314611434578063286e98e1146113c9578063287283f11461137b5780632f2ff15d1461133c57806336568abe146112f5578063449d37c2146112cc5780634e22432b146111bf5780635c4cc1e1146110325780635da3b68314610b035780635f6c49ea14610ada578063672037cd14610a6f57806391d1485414610a2257806396530199146108935780639be8f2a614610622578063a217fddf14610606578063ab331a34146101e8578063d06e0722146101415763d547741f146100fb57600080fd5b3461013c57604036600319011261013c5761013a60043561011a61168b565b908060005260006020526101356001604060002001546118f0565b611aca565b005b600080fd5b3461013c57604036600319011261013c576004356001600160401b03811161013c5761017190369060040161161f565b61018d60206024359281604051938285809451938492016116a1565b8101600381520301902090815481101561013c576101aa916117d6565b6101d2576101ba6101ce91611723565b6040519182916020835260208301906116c4565b0390f35b634e487b7160e01b600052600060045260246000fd5b3461013c57602036600319011261013c576004356001600160401b03811161013c57602061021d6102ec92369060040161161f565b600061024060405161022e816115e2565b606081526060858201526060604082015260608082015260606080820152606060a0820152606060c0820152606060e0820152826101008201526060610120820152606061014082015260606101608201526060610180820152826101a0820152826101c0820152826101e082015282610200820152826102208201520152604051906102db60ff8251938581818601966102ca81838a6116a1565b810160028152030190205416611c6e565b6040519384928392519283916116a1565b81016001815203019020600f60405191610305836115e2565b61030e81611723565b835261031c60018201611723565b602084015261032d60028201611723565b604084015261033e60038201611723565b606084015261034f60048201611723565b608084015261036060058201611723565b60a084015261037160068201611723565b60c084015261038260078201611723565b60e0840152600881015461010084015261039e60098201611723565b6101208401526103b0600a8201611723565b6101408401526103c2600b8201611723565b6101608401526103d4600c8201611723565b610180840152600d8101546101a084015260018060a01b03600e820154166101c0840152015460018060a01b0381166101e083015260ff8160a01c16151561020083015260ff8160a81c161515610220830152600560ff8260b01c1610156105f05760ff9060b01c166102408201526040518091602082526101ce61024061059461057c61056461054c6105286105116104fb6104e56104cf8b8d60606104ba6104a561048f855161026060208701526102808601906116c4565b6020860151858203601f190160408701526116c4565b6040850151848203601f1901848601526116c4565b920151906080601f19828503019101526116c4565b60808c01518d8203601f190160a08f01526116c4565b60a08b01518c8203601f190160c08e01526116c4565b60c08a01518b8203601f190160e08d01526116c4565b60e08901518a8203601f19016101008c01526116c4565b6101008801516101208a0152610120880151601f198a8303016101408b01526116c4565b610140870151888203601f19016101608a01526116c4565b610160860151878203601f19016101808901526116c4565b610180850151868203601f19016101a08801526116c4565b926101a08101516101c086015260018060a01b036101c0820151166101e086015260018060a01b036101e082015116610200860152610200810151151561022086015261022081015115158286015201516102608401906117c9565b634e487b7160e01b600052602160045260246000fd5b3461013c57600036600319011261013c57602060405160008152f35b3461013c57602036600319011261013c576004356001600160401b03811161013c5761065290369060040161161f565b6040518181809351602081930191610669926116a1565b81016001815203602001902061067e81611723565b61068a60018301611723565b9161069760028201611723565b6106a360038301611723565b6106af60048401611723565b6106bb60058501611723565b6106c760068601611723565b6106d360078701611723565b6008870154916106e560098901611723565b936106f2600a8a01611723565b956106ff600b8b01611723565b9761070c600c8c01611723565b99600d8c01549d8c600160a01b6001900390600e0154169c600f01549d6040518060805261026080915260805101610743916116c4565b6080518082039060200152610757916116c4565b608051808203906040015261076b916116c4565b608051808203906060015261077f916116c4565b6080518082039060800152610793916116c4565b6080518082039060a001526107a7916116c4565b6080518082039060c001526107bb916116c4565b6080518082039060e001526107cf916116c4565b9060805161010001526080518082039061012001526107ed916116c4565b608051808203906101400152610802916116c4565b608051808203906101600152610817916116c4565b60805180820390610180015261082c916116c4565b926080516101a001526080516101c00152600160a01b6001900381166080516101e001528060a01c60ff16151560805161020001528060a81c60ff1615156080516102200152608051610240019060b01c60ff169061088a916117c9565b60805180910390f35b3461013c5760208060031936011261013c576004356001600160401b03811161013c576108c490369060040161161f565b6108cc6118a6565b6040516108e860ff8351928581818701956102ca8183896116a1565b60ff600f604051858186516108fe8183896116a1565b81016001815203019020015460a01c166109ea5790600f610992846109b59483604051838188516109308183886116a1565b8101600181520301902001600160a01b60ff60a01b19825416179055836040518381885161095f8183886116a1565b8101600181520301902001336bffffffffffffffffffffffff60a01b8254161790556040518093819287519283916116a1565b60019082019081520301902001805460ff60b01b1916600160b01b179055611c4e565b604051904282527fdc67450da5ba97f56f673a8bfa2a9bc155cb229647d08e2816a25c06909a47a8833393a360405160018152f35b60405162461bcd60e51b815260048101849052601060248201526f105b1c9958591e48185c1c1c9bdd995960821b6044820152606490fd5b3461013c57604036600319011261013c57610a3b61168b565b600435600052600060205260406000209060018060a01b0316600052602052602060ff604060002054166040519015158152f35b3461013c57602036600319011261013c5761013a610a8b611675565b610a9361186c565b600080516020611cbb83398151915260009081526020527f93448e077baa9f1f1990beb53e302494bb36d2fe3a11944845dfdb71d35ac06554610ad5906118f0565b6119b6565b3461013c57600036600319011261013c576020604051600080516020611cdb8339815191528152f35b3461013c576101a036600319011261013c576001600160401b0360043581811161013c57610b3590369060040161161f565b60243582811161013c57610b4d90369060040161161f565b9160443581811161013c57610b6690369060040161161f565b60643582811161013c57610b7e90369060040161161f565b9160843581811161013c57610b9790369060040161161f565b9060a43581811161013c57610bb090369060040161161f565b60c43582811161013c57610bc890369060040161161f565b60e43583811161013c57610be090369060040161161f565b6101243584811161013c57610bf990369060040161161f565b916101443585811161013c57610c1390369060040161161f565b936101643586811161013c57610c2d90369060040161161f565b95610184351161013c57610c47366101843560040161161f565b96610c506118a6565b60ff610c6b60208d81604051938285809451938492016116a1565b810160028152030190205416610fed578a5115610fb1578b5115610f785760405198610c968a6115e2565b8b8a528c60208b015260408a01528960608a0152608089015260a088015260c087015260e086015261010435610100860152610120850152610140840152610160830152610180820152426101a0820152336101c082015260006101e08201526000610200820152600061022082015260006102408201526040516020818551610d238183858a016116a1565b8101600181520301902091610d39825184611b3f565b610d4a602083015160018501611b3f565b610d5b604083015160028501611b3f565b610d6c606083015160038501611b3f565b610d7d608083015160048501611b3f565b610d8e60a083015160058501611b3f565b610d9f60c083015160068501611b3f565b610db060e083015160078501611b3f565b6101008201516008840155610dcd61012083015160098501611b3f565b610ddf610140830151600a8501611b3f565b610df1610160830151600b8501611b3f565b610e03610180830151600c8501611b3f565b6101a0820151600d8401556101c0820151600e840180546001600160a01b0319166001600160a01b039283161790556101e0830151600f90940180546102008501516102208601516102409096015196909316959491929091151560a81b60ff60a81b1690151560a01b60ff60a01b1660058610156105f057610ede9660209660ff60b01b9060b01b169368ffffffffffffffffff60b81b1617171717905560405182818651610eb68183858b016116a1565b81016002815203019020600160ff1982541617905581604051938285809451938492016116a1565b81016003815203019020805468010000000000000000811015610f6257610f0a916001820181556117d6565b6101d25781610f1f610f2a93610f2493611b3f565b611c4e565b91611c4e565b604051914283527fbaf6e1f686649127444e446a1d7f9614856ecceca8b95ee1f76230584f42e8ec60203394a4602060405160018152f35b634e487b7160e01b600052604160045260246000fd5b60405162461bcd60e51b815260206004820152601160248201527013dddb995c881251081c995c5d5a5c9959607a1b6044820152606490fd5b60405162461bcd60e51b8152602060048201526014602482015273141c9bdc195c9d1e481251081c995c5d5a5c995960621b6044820152606490fd5b60405162461bcd60e51b815260206004820152601760248201527f50726f706572747920616c7265616479206578697374730000000000000000006044820152606490fd5b3461013c57604036600319011261013c576001600160401b0360043581811161013c5761106390369060040161161f565b9060243590811161013c5761107c90369060040161161f565b611084611804565b6040519180516110a360ff6020958681818701956102ca8183896116a1565b60ff600f604051868186516110b98183896116a1565b81016001815203019020015460a81c166111895790600f61111b8561113e9483604051838188516110eb8183886116a1565b60019082019081520301902001805460ff60a81b1916600160a81b179055604051855190938492829084906116a1565b60019082019081520301902001805460ff60b01b1916600360b01b179055611c4e565b7f853c948092888845e1d6b2e6e9bf766337ccf85b4916d54635ceef7912588042611174604051936040855260408501906116c4565b9242858201528033940390a360405160018152f35b60405162461bcd60e51b815260048101859052600e60248201526d20b63932b0b23c90333937bd32b760911b6044820152606490fd5b3461013c5760208060031936011261013c576001600160401b0360043581811161013c57826111f561120892369060040161161f565b81604051938285809451938492016116a1565b810160038152030190208054918211610f6257829060405192611230838260051b01856115fe565b8084528284018092600052836000206000915b8383106112aa5750505050604051918083019381845251809452604083019360408160051b85010192916000955b82871061127e5785850386f35b90919293828061129a600193603f198a820301865288516116c4565b9601920196019592919092611271565b60018681926112bb859a999a611723565b815201920192019190959495611243565b3461013c57600036600319011261013c576020604051600080516020611cbb8339815191528152f35b3461013c57604036600319011261013c5761130e61168b565b336001600160a01b0382160361132a5761013a90600435611aca565b60405163334bd91960e11b8152600490fd5b3461013c57604036600319011261013c5761013a60043561135b61168b565b908060005260006020526113766001604060002001546118f0565b611a51565b3461013c57602036600319011261013c576004356001600160401b03811161013c5760ff6113b360206111f58194369060040161161f565b8101600281520301902054166040519015158152f35b3461013c57602036600319011261013c5761013a6113e5611675565b6113ed61186c565b600080516020611cdb83398151915260009081526020527fa64e760fa10cf8af24da398951e54cb88533db46dcd0c44f1957b03d800be2435461142f906118f0565b611916565b3461013c57602036600319011261013c5760043560005260006020526020600160406000200154604051908152f35b3461013c5760208060031936011261013c576004356001600160401b03811161013c5761149490369060040161161f565b61149c611804565b6040516114b860ff8351928581818701956102ca8183896116a1565b60ff600f604051858186516114ce8183896116a1565b81016001815203019020015460a81c161561155d5790600f610992846115289483604051838188516115018183886116a1565b810160018152030190200160ff60a81b1981541690556040518093819287519283916116a1565b604051904282527fea2e83df0903c28b1ee2c10b6b07f5233aca0eec8a7ba832d824a0a320f9342b833393a360405160018152f35b60405162461bcd60e51b815260048101849052600a6024820152692737ba10333937bd32b760b11b6044820152606490fd5b3461013c57602036600319011261013c576004359063ffffffff60e01b821680920361013c57602091637965db0b60e01b81149081156115d1575b5015158152f35b6301ffc9a760e01b149050836115ca565b61026081019081106001600160401b03821117610f6257604052565b90601f801991011681019081106001600160401b03821117610f6257604052565b81601f8201121561013c578035906001600160401b038211610f625760405192611653601f8401601f1916602001856115fe565b8284526020838301011161013c57816000926020809301838601378301015290565b600435906001600160a01b038216820361013c57565b602435906001600160a01b038216820361013c57565b60005b8381106116b45750506000910152565b81810151838201526020016116a4565b906020916116dd815180928185528580860191016116a1565b601f01601f1916010190565b90600182811c92168015611719575b602083101461170357565b634e487b7160e01b600052602260045260246000fd5b91607f16916116f8565b9060405191826000825492611737846116e9565b9081845260019485811690816000146117a65750600114611763575b5050611761925003836115fe565b565b9093915060005260209081600020936000915b81831061178e57505061176193508201013880611753565b85548884018501529485019487945091830191611776565b91505061176194506020925060ff191682840152151560051b8201013880611753565b9060058210156105f05752565b80548210156117ee5760005260206000200190600090565b634e487b7160e01b600052603260045260246000fd5b3360009081527fa64e760fa10cf8af24da398951e54cb88533db46dcd0c44f1957b03d800be2426020526040902054600080516020611cdb8339815191529060ff161561184e5750565b6044906040519063e2517d3f60e01b82523360048301526024820152fd5b3360009081527fad3228b676f7d3cd4284a5443f17f1962b36e491b30a40b2405849e597ba5fb5602052604081205460ff161561184e5750565b3360009081527f93448e077baa9f1f1990beb53e302494bb36d2fe3a11944845dfdb71d35ac0646020526040902054600080516020611cbb8339815191529060ff161561184e5750565b80600052600060205260406000203360005260205260ff604060002054161561184e5750565b6001600160a01b031660008181527fa64e760fa10cf8af24da398951e54cb88533db46dcd0c44f1957b03d800be2426020526040812054909190600080516020611cdb8339815191529060ff166119b157808352826020526040832082845260205260408320600160ff198254161790557f2f8788117e7eff1d82e926ec794901d17c78024a50270940304540a733656f0d339380a4600190565b505090565b6001600160a01b031660008181527f93448e077baa9f1f1990beb53e302494bb36d2fe3a11944845dfdb71d35ac0646020526040812054909190600080516020611cbb8339815191529060ff166119b157808352826020526040832082845260205260408320600160ff198254161790557f2f8788117e7eff1d82e926ec794901d17c78024a50270940304540a733656f0d339380a4600190565b9060009180835282602052604083209160018060a01b03169182845260205260ff604084205416156000146119b157808352826020526040832082845260205260408320600160ff198254161790557f2f8788117e7eff1d82e926ec794901d17c78024a50270940304540a733656f0d339380a4600190565b9060009180835282602052604083209160018060a01b03169182845260205260ff6040842054166000146119b15780835282602052604083208284526020526040832060ff1981541690557ff6391f5c32d9c69d2a47ea670b442974b53935d1edc7fd64eb21e047a839171b339380a4600190565b91909182516001600160401b038111610f6257611b5c82546116e9565b601f8111611c06575b50602080601f8311600114611ba2575081929394600092611b97575b50508160011b916000199060031b1c1916179055565b015190503880611b81565b90601f198316958460005282600020926000905b888210611bee57505083600195969710611bd5575b505050811b019055565b015160001960f88460031b161c19169055388080611bcb565b80600185968294968601518155019501930190611bb6565b600083815260208120601f840160051c81019260208510611c44575b601f0160051c01915b828110611c39575050611b65565b818155600101611c2b565b9092508290611c22565b611c66906020604051928284809451938492016116a1565b810103902090565b15611c7557565b60405162461bcd60e51b815260206004820152601760248201527f50726f706572747920646f6573206e6f742065786973740000000000000000006044820152606490fdfed56e9b36a6bb6ccf81c326090d5d6b5f0d6a58c2373adc2cf81a508f211cfb3925e4229ee368ad63b1bdff8c00b38fac6bfb78fbb3fe3aae36beb769834e77a3a2646970667358221220f54c594e094d5140258335e80d781a727308b889655fea27f30900c17324481464736f6c63430008140033","opcodes":"PUSH1 0x80 PUSH1 0x40 MSTORE CALLVALUE PUSH2 0x22 JUMPI PUSH2 0x12 CALLER PUSH2 0x27 JUMP JUMPDEST POP PUSH1 0x40 MLOAD PUSH2 0x1D30 SWAP1 DUP2 PUSH2 0xB8 DUP3 CODECOPY RETURN JUMPDEST PUSH1 0x0 DUP1 REVERT JUMPDEST PUSH1 0x1 PUSH1 0x1 PUSH1 0xA0 SHL SUB AND PUSH1 0x0 DUP2 DUP2 MSTORE PUSH32 0xAD3228B676F7D3CD4284A5443F17F1962B36E491B30A40B2405849E597BA5FB5 PUSH1 0x20 MSTORE PUSH1 0x40 DUP2 KECCAK256 SLOAD SWAP1 SWAP2 SWAP1 PUSH1 0xFF AND PUSH2 0xB3 JUMPI DUP2 DUP1 MSTORE DUP2 PUSH1 0x20 MSTORE PUSH1 0x40 DUP3 KECCAK256 DUP2 DUP4 MSTORE PUSH1 0x20 MSTORE PUSH1 0x40 DUP3 KECCAK256 PUSH1 0x1 PUSH1 0xFF NOT DUP3 SLOAD AND OR SWAP1 SSTORE CALLER SWAP2 PUSH32 0x2F8788117E7EFF1D82E926EC794901D17C78024A50270940304540A733656F0D DUP2 DUP1 LOG4 PUSH1 0x1 SWAP1 JUMP JUMPDEST POP SWAP1 JUMP INVALID PUSH1 0xA0 DUP1 PUSH1 0x40 MSTORE PUSH1 0x4 CALLDATASIZE LT ISZERO PUSH2 0x13 JUMPI PUSH1 0x0 DUP1 REVERT JUMPDEST PUSH1 0x0 CALLDATALOAD PUSH1 0xE0 SHR SWAP1 DUP2 PUSH4 0x1FFC9A7 EQ PUSH2 0x158F JUMPI POP DUP1 PUSH4 0xA3314D3 EQ PUSH2 0x1463 JUMPI DUP1 PUSH4 0x248A9CA3 EQ PUSH2 0x1434 JUMPI DUP1 PUSH4 0x286E98E1 EQ PUSH2 0x13C9 JUMPI DUP1 PUSH4 0x287283F1 EQ PUSH2 0x137B JUMPI DUP1 PUSH4 0x2F2FF15D EQ PUSH2 0x133C JUMPI DUP1 PUSH4 0x36568ABE EQ PUSH2 0x12F5 JUMPI DUP1 PUSH4 0x449D37C2 EQ PUSH2 0x12CC JUMPI DUP1 PUSH4 0x4E22432B EQ PUSH2 0x11BF JUMPI DUP1 PUSH4 0x5C4CC1E1 EQ PUSH2 0x1032 JUMPI DUP1 PUSH4 0x5DA3B683 EQ PUSH2 0xB03 JUMPI DUP1 PUSH4 0x5F6C49EA EQ PUSH2 0xADA JUMPI DUP1 PUSH4 0x672037CD EQ PUSH2 0xA6F JUMPI DUP1 PUSH4 0x91D14854 EQ PUSH2 0xA22 JUMPI DUP1 PUSH4 0x96530199 EQ PUSH2 0x893 JUMPI DUP1 PUSH4 0x9BE8F2A6 EQ PUSH2 0x622 JUMPI DUP1 PUSH4 0xA217FDDF EQ PUSH2 0x606 JUMPI DUP1 PUSH4 0xAB331A34 EQ PUSH2 0x1E8 JUMPI DUP1 PUSH4 0xD06E0722 EQ PUSH2 0x141 JUMPI PUSH4 0xD547741F EQ PUSH2 0xFB JUMPI PUSH1 0x0 DUP1 REVERT JUMPDEST CALLVALUE PUSH2 0x13C JUMPI PUSH1 0x40 CALLDATASIZE PUSH1 0x3 NOT ADD SLT PUSH2 0x13C JUMPI PUSH2 0x13A PUSH1 0x4 CALLDATALOAD PUSH2 0x11A PUSH2 0x168B JUMP JUMPDEST SWAP1 DUP1 PUSH1 0x0 MSTORE PUSH1 0x0 PUSH1 0x20 MSTORE PUSH2 0x135 PUSH1 0x1 PUSH1 0x40 PUSH1 0x0 KECCAK256 ADD SLOAD PUSH2 0x18F0 JUMP JUMPDEST PUSH2 0x1ACA JUMP JUMPDEST STOP JUMPDEST PUSH1 0x0 DUP1 REVERT JUMPDEST CALLVALUE PUSH2 0x13C JUMPI PUSH1 0x40 CALLDATASIZE PUSH1 0x3 NOT ADD SLT PUSH2 0x13C JUMPI PUSH1 0x4 CALLDATALOAD PUSH1 0x1 PUSH1 0x1 PUSH1 0x40 SHL SUB DUP2 GT PUSH2 0x13C JUMPI PUSH2 0x171 SWAP1 CALLDATASIZE SWAP1 PUSH1 0x4 ADD PUSH2 0x161F JUMP JUMPDEST PUSH2 0x18D PUSH1 0x20 PUSH1 0x24 CALLDATALOAD SWAP3 DUP2 PUSH1 0x40 MLOAD SWAP4 DUP3 DUP6 DUP1 SWAP5 MLOAD SWAP4 DUP5 SWAP3 ADD PUSH2 0x16A1 JUMP JUMPDEST DUP2 ADD PUSH1 0x3 DUP2 MSTORE SUB ADD SWAP1 KECCAK256 SWAP1 DUP2 SLOAD DUP2 LT ISZERO PUSH2 0x13C JUMPI PUSH2 0x1AA SWAP2 PUSH2 0x17D6 JUMP JUMPDEST PUSH2 0x1D2 JUMPI PUSH2 0x1BA PUSH2 0x1CE SWAP2 PUSH2 0x1723 JUMP JUMPDEST PUSH1 0x40 MLOAD SWAP2 DUP3 SWAP2 PUSH1 0x20 DUP4 MSTORE PUSH1 0x20 DUP4 ADD SWAP1 PUSH2 0x16C4 JUMP JUMPDEST SUB SWAP1 RETURN JUMPDEST PUSH4 0x4E487B71 PUSH1 0xE0 SHL PUSH1 0x0 MSTORE PUSH1 0x0 PUSH1 0x4 MSTORE PUSH1 0x24 PUSH1 0x0 REVERT JUMPDEST CALLVALUE PUSH2 0x13C JUMPI PUSH1 0x20 CALLDATASIZE PUSH1 0x3 NOT ADD SLT PUSH2 0x13C JUMPI PUSH1 0x4 CALLDATALOAD PUSH1 0x1 PUSH1 0x1 PUSH1 0x40 SHL SUB DUP2 GT PUSH2 0x13C JUMPI PUSH1 0x20 PUSH2 0x21D PUSH2 0x2EC SWAP3 CALLDATASIZE SWAP1 PUSH1 0x4 ADD PUSH2 0x161F JUMP JUMPDEST PUSH1 0x0 PUSH2 0x240 PUSH1 0x40 MLOAD PUSH2 0x22E DUP2 PUSH2 0x15E2 JUMP JUMPDEST PUSH1 0x60 DUP2 MSTORE PUSH1 0x60 DUP6 DUP3 ADD MSTORE PUSH1 0x60 PUSH1 0x40 DUP3 ADD MSTORE PUSH1 0x60 DUP1 DUP3 ADD MSTORE PUSH1 0x60 PUSH1 0x80 DUP3 ADD MSTORE PUSH1 0x60 PUSH1 0xA0 DUP3 ADD MSTORE PUSH1 0x60 PUSH1 0xC0 DUP3 ADD MSTORE PUSH1 0x60 PUSH1 0xE0 DUP3 ADD MSTORE DUP3 PUSH2 0x100 DUP3 ADD MSTORE PUSH1 0x60 PUSH2 0x120 DUP3 ADD MSTORE PUSH1 0x60 PUSH2 0x140 DUP3 ADD MSTORE PUSH1 0x60 PUSH2 0x160 DUP3 ADD MSTORE PUSH1 0x60 PUSH2 0x180 DUP3 ADD MSTORE DUP3 PUSH2 0x1A0 DUP3 ADD MSTORE DUP3 PUSH2 0x1C0 DUP3 ADD MSTORE DUP3 PUSH2 0x1E0 DUP3 ADD MSTORE DUP3 PUSH2 0x200 DUP3 ADD MSTORE DUP3 PUSH2 0x220 DUP3 ADD MSTORE ADD MSTORE PUSH1 0x40 MLOAD SWAP1 PUSH2 0x2DB PUSH1 0xFF DUP3 MLOAD SWAP4 DUP6 DUP2 DUP2 DUP7 ADD SWAP7 PUSH2 0x2CA DUP2 DUP4 DUP11 PUSH2 0x16A1 JUMP JUMPDEST DUP2 ADD PUSH1 0x2 DUP2 MSTORE SUB ADD SWAP1 KECCAK256 SLOAD AND PUSH2 0x1C6E JUMP JUMPDEST PUSH1 0x40 MLOAD SWAP4 DUP5 SWAP3 DUP4 SWAP3 MLOAD SWAP3 DUP4 SWAP2 PUSH2 0x16A1 JUMP JUMPDEST DUP2 ADD PUSH1 0x1 DUP2 MSTORE SUB ADD SWAP1 KECCAK256 PUSH1 0xF PUSH1 0x40 MLOAD SWAP2 PUSH2 0x305 DUP4 PUSH2 0x15E2 JUMP JUMPDEST PUSH2 0x30E DUP2 PUSH2 0x1723 JUMP JUMPDEST DUP4 MSTORE PUSH2 0x31C PUSH1 0x1 DUP3 ADD PUSH2 0x1723 JUMP JUMPDEST PUSH1 0x20 DUP5 ADD MSTORE PUSH2 0x32D PUSH1 0x2 DUP3 ADD PUSH2 0x1723 JUMP JUMPDEST PUSH1 0x40 DUP5 ADD MSTORE PUSH2 0x33E PUSH1 0x3 DUP3 ADD PUSH2 0x1723 JUMP JUMPDEST PUSH1 0x60 DUP5 ADD MSTORE PUSH2 0x34F PUSH1 0x4 DUP3 ADD PUSH2 0x1723 JUMP JUMPDEST PUSH1 0x80 DUP5 ADD MSTORE PUSH2 0x360 PUSH1 0x5 DUP3 ADD PUSH2 0x1723 JUMP JUMPDEST PUSH1 0xA0 DUP5 ADD MSTORE PUSH2 0x371 PUSH1 0x6 DUP3 ADD PUSH2 0x1723 JUMP JUMPDEST PUSH1 0xC0 DUP5 ADD MSTORE PUSH2 0x382 PUSH1 0x7 DUP3 ADD PUSH2 0x1723 JUMP JUMPDEST PUSH1 0xE0 DUP5 ADD MSTORE PUSH1 0x8 DUP2 ADD SLOAD PUSH2 0x100 DUP5 ADD MSTORE PUSH2 0x39E PUSH1 0x9 DUP3 ADD PUSH2 0x1723 JUMP JUMPDEST PUSH2 0x120 DUP5 ADD MSTORE PUSH2 0x3B0 PUSH1 0xA DUP3 ADD PUSH2 0x1723 JUMP JUMPDEST PUSH2 0x140 DUP5 ADD MSTORE PUSH2 0x3C2 PUSH1 0xB DUP3 ADD PUSH2 0x1723 JUMP JUMPDEST PUSH2 0x160 DUP5 ADD MSTORE PUSH2 0x3D4 PUSH1 0xC DUP3 ADD PUSH2 0x1723 JUMP JUMPDEST PUSH2 0x180 DUP5 ADD MSTORE PUSH1 0xD DUP2 ADD SLOAD PUSH2 0x1A0 DUP5 ADD MSTORE PUSH1 0x1 DUP1 PUSH1 0xA0 SHL SUB PUSH1 0xE DUP3 ADD SLOAD AND PUSH2 0x1C0 DUP5 ADD MSTORE ADD SLOAD PUSH1 0x1 DUP1 PUSH1 0xA0 SHL SUB DUP2 AND PUSH2 0x1E0 DUP4 ADD MSTORE PUSH1 0xFF DUP2 PUSH1 0xA0 SHR AND ISZERO ISZERO PUSH2 0x200 DUP4 ADD MSTORE PUSH1 0xFF DUP2 PUSH1 0xA8 SHR AND ISZERO ISZERO PUSH2 0x220 DUP4 ADD MSTORE PUSH1 0x5 PUSH1 0xFF DUP3 PUSH1 0xB0 SHR AND LT ISZERO PUSH2 0x5F0 JUMPI PUSH1 0xFF SWAP1 PUSH1 0xB0 SHR AND PUSH2 0x240 DUP3 ADD MSTORE PUSH1 0x40 MLOAD DUP1 SWAP2 PUSH1 0x20 DUP3 MSTORE PUSH2 0x1CE PUSH2 0x240 PUSH2 0x594 PUSH2 0x57C PUSH2 0x564 PUSH2 0x54C PUSH2 0x528 PUSH2 0x511 PUSH2 0x4FB PUSH2 0x4E5 PUSH2 0x4CF DUP12 DUP14 PUSH1 0x60 PUSH2 0x4BA PUSH2 0x4A5 PUSH2 0x48F DUP6 MLOAD PUSH2 0x260 PUSH1 0x20 DUP8 ADD MSTORE PUSH2 0x280 DUP7 ADD SWAP1 PUSH2 0x16C4 JUMP JUMPDEST PUSH1 0x20 DUP7 ADD MLOAD DUP6 DUP3 SUB PUSH1 0x1F NOT ADD PUSH1 0x40 DUP8 ADD MSTORE PUSH2 0x16C4 JUMP JUMPDEST PUSH1 0x40 DUP6 ADD MLOAD DUP5 DUP3 SUB PUSH1 0x1F NOT ADD DUP5 DUP7 ADD MSTORE PUSH2 0x16C4 JUMP JUMPDEST SWAP3 ADD MLOAD SWAP1 PUSH1 0x80 PUSH1 0x1F NOT DUP3 DUP6 SUB ADD SWAP2 ADD MSTORE PUSH2 0x16C4 JUMP JUMPDEST PUSH1 0x80 DUP13 ADD MLOAD DUP14 DUP3 SUB PUSH1 0x1F NOT ADD PUSH1 0xA0 DUP16 ADD MSTORE PUSH2 0x16C4 JUMP JUMPDEST PUSH1 0xA0 DUP12 ADD MLOAD DUP13 DUP3 SUB PUSH1 0x1F NOT ADD PUSH1 0xC0 DUP15 ADD MSTORE PUSH2 0x16C4 JUMP JUMPDEST PUSH1 0xC0 DUP11 ADD MLOAD DUP12 DUP3 SUB PUSH1 0x1F NOT ADD PUSH1 0xE0 DUP14 ADD MSTORE PUSH2 0x16C4 JUMP JUMPDEST PUSH1 0xE0 DUP10 ADD MLOAD DUP11 DUP3 SUB PUSH1 0x1F NOT ADD PUSH2 0x100 DUP13 ADD MSTORE PUSH2 0x16C4 JUMP JUMPDEST PUSH2 0x100 DUP9 ADD MLOAD PUSH2 0x120 DUP11 ADD MSTORE PUSH2 0x120 DUP9 ADD MLOAD PUSH1 0x1F NOT DUP11 DUP4 SUB ADD PUSH2 0x140 DUP12 ADD MSTORE PUSH2 0x16C4 JUMP JUMPDEST PUSH2 0x140 DUP8 ADD MLOAD DUP9 DUP3 SUB PUSH1 0x1F NOT ADD PUSH2 0x160 DUP11 ADD MSTORE PUSH2 0x16C4 JUMP JUMPDEST PUSH2 0x160 DUP7 ADD MLOAD DUP8 DUP3 SUB PUSH1 0x1F NOT ADD PUSH2 0x180 DUP10 ADD MSTORE PUSH2 0x16C4 JUMP JUMPDEST PUSH2 0x180 DUP6 ADD MLOAD DUP7 DUP3 SUB PUSH1 0x1F NOT ADD PUSH2 0x1A0 DUP9 ADD MSTORE PUSH2 0x16C4 JUMP JUMPDEST SWAP3 PUSH2 0x1A0 DUP2 ADD MLOAD PUSH2 0x1C0 DUP7 ADD MSTORE PUSH1 0x1 DUP1 PUSH1 0xA0 SHL SUB PUSH2 0x1C0 DUP3 ADD MLOAD AND PUSH2 0x1E0 DUP7 ADD MSTORE PUSH1 0x1 DUP1 PUSH1 0xA0 SHL SUB PUSH2 0x1E0 DUP3 ADD MLOAD AND PUSH2 0x200 DUP7 ADD MSTORE PUSH2 0x200 DUP2 ADD MLOAD ISZERO ISZERO PUSH2 0x220 DUP7 ADD MSTORE PUSH2 0x220 DUP2 ADD MLOAD ISZERO ISZERO DUP3 DUP7 ADD MSTORE ADD MLOAD PUSH2 0x260 DUP5 ADD SWAP1 PUSH2 0x17C9 JUMP JUMPDEST PUSH4 0x4E487B71 PUSH1 0xE0 SHL PUSH1 0x0 MSTORE PUSH1 0x21 PUSH1 0x4 MSTORE PUSH1 0x24 PUSH1 0x0 REVERT JUMPDEST CALLVALUE PUSH2 0x13C JUMPI PUSH1 0x0 CALLDATASIZE PUSH1 0x3 NOT ADD SLT PUSH2 0x13C JUMPI PUSH1 0x20 PUSH1 0x40 MLOAD PUSH1 0x0 DUP2 MSTORE RETURN JUMPDEST CALLVALUE PUSH2 0x13C JUMPI PUSH1 0x20 CALLDATASIZE PUSH1 0x3 NOT ADD SLT PUSH2 0x13C JUMPI PUSH1 0x4 CALLDATALOAD PUSH1 0x1 PUSH1 0x1 PUSH1 0x40 SHL SUB DUP2 GT PUSH2 0x13C JUMPI PUSH2 0x652 SWAP1 CALLDATASIZE SWAP1 PUSH1 0x4 ADD PUSH2 0x161F JUMP JUMPDEST PUSH1 0x40 MLOAD DUP2 DUP2 DUP1 SWAP4 MLOAD PUSH1 0x20 DUP2 SWAP4 ADD SWAP2 PUSH2 0x669 SWAP3 PUSH2 0x16A1 JUMP JUMPDEST DUP2 ADD PUSH1 0x1 DUP2 MSTORE SUB PUSH1 0x20 ADD SWAP1 KECCAK256 PUSH2 0x67E DUP2 PUSH2 0x1723 JUMP JUMPDEST PUSH2 0x68A PUSH1 0x1 DUP4 ADD PUSH2 0x1723 JUMP JUMPDEST SWAP2 PUSH2 0x697 PUSH1 0x2 DUP3 ADD PUSH2 0x1723 JUMP JUMPDEST PUSH2 0x6A3 PUSH1 0x3 DUP4 ADD PUSH2 0x1723 JUMP JUMPDEST PUSH2 0x6AF PUSH1 0x4 DUP5 ADD PUSH2 0x1723 JUMP JUMPDEST PUSH2 0x6BB PUSH1 0x5 DUP6 ADD PUSH2 0x1723 JUMP JUMPDEST PUSH2 0x6C7 PUSH1 0x6 DUP7 ADD PUSH2 0x1723 JUMP JUMPDEST PUSH2 0x6D3 PUSH1 0x7 DUP8 ADD PUSH2 0x1723 JUMP JUMPDEST PUSH1 0x8 DUP8 ADD SLOAD SWAP2 PUSH2 0x6E5 PUSH1 0x9 DUP10 ADD PUSH2 0x1723 JUMP JUMPDEST SWAP4 PUSH2 0x6F2 PUSH1 0xA DUP11 ADD PUSH2 0x1723 JUMP JUMPDEST SWAP6 PUSH2 0x6FF PUSH1 0xB DUP12 ADD PUSH2 0x1723 JUMP JUMPDEST SWAP8 PUSH2 0x70C PUSH1 0xC DUP13 ADD PUSH2 0x1723 JUMP JUMPDEST SWAP10 PUSH1 0xD DUP13 ADD SLOAD SWAP14 DUP13 PUSH1 0x1 PUSH1 0xA0 SHL PUSH1 0x1 SWAP1 SUB SWAP1 PUSH1 0xE ADD SLOAD AND SWAP13 PUSH1 0xF ADD SLOAD SWAP14 PUSH1 0x40 MLOAD DUP1 PUSH1 0x80 MSTORE PUSH2 0x260 DUP1 SWAP2 MSTORE PUSH1 0x80 MLOAD ADD PUSH2 0x743 SWAP2 PUSH2 0x16C4 JUMP JUMPDEST PUSH1 0x80 MLOAD DUP1 DUP3 SUB SWAP1 PUSH1 0x20 ADD MSTORE PUSH2 0x757 SWAP2 PUSH2 0x16C4 JUMP JUMPDEST PUSH1 0x80 MLOAD DUP1 DUP3 SUB SWAP1 PUSH1 0x40 ADD MSTORE PUSH2 0x76B SWAP2 PUSH2 0x16C4 JUMP JUMPDEST PUSH1 0x80 MLOAD DUP1 DUP3 SUB SWAP1 PUSH1 0x60 ADD MSTORE PUSH2 0x77F SWAP2 PUSH2 0x16C4 JUMP JUMPDEST PUSH1 0x80 MLOAD DUP1 DUP3 SUB SWAP1 PUSH1 0x80 ADD MSTORE PUSH2 0x793 SWAP2 PUSH2 0x16C4 JUMP JUMPDEST PUSH1 0x80 MLOAD DUP1 DUP3 SUB SWAP1 PUSH1 0xA0 ADD MSTORE PUSH2 0x7A7 SWAP2 PUSH2 0x16C4 JUMP JUMPDEST PUSH1 0x80 MLOAD DUP1 DUP3 SUB SWAP1 PUSH1 0xC0 ADD MSTORE PUSH2 0x7BB SWAP2 PUSH2 0x16C4 JUMP JUMPDEST PUSH1 0x80 MLOAD DUP1 DUP3 SUB SWAP1 PUSH1 0xE0 ADD MSTORE PUSH2 0x7CF SWAP2 PUSH2 0x16C4 JUMP JUMPDEST SWAP1 PUSH1 0x80 MLOAD PUSH2 0x100 ADD MSTORE PUSH1 0x80 MLOAD DUP1 DUP3 SUB SWAP1 PUSH2 0x120 ADD MSTORE PUSH2 0x7ED SWAP2 PUSH2 0x16C4 JUMP JUMPDEST PUSH1 0x80 MLOAD DUP1 DUP3 SUB SWAP1 PUSH2 0x140 ADD MSTORE PUSH2 0x802 SWAP2 PUSH2 0x16C4 JUMP JUMPDEST PUSH1 0x80 MLOAD DUP1 DUP3 SUB SWAP1 PUSH2 0x160 ADD MSTORE PUSH2 0x817 SWAP2 PUSH2 0x16C4 JUMP JUMPDEST PUSH1 0x80 MLOAD DUP1 DUP3 SUB SWAP1 PUSH2 0x180 ADD MSTORE PUSH2 0x82C SWAP2 PUSH2 0x16C4 JUMP JUMPDEST SWAP3 PUSH1 0x80 MLOAD PUSH2 0x1A0 ADD MSTORE PUSH1 0x80 MLOAD PUSH2 0x1C0 ADD MSTORE PUSH1 0x1 PUSH1 0xA0 SHL PUSH1 0x1 SWAP1 SUB DUP2 AND PUSH1 0x80 MLOAD PUSH2 0x1E0 ADD MSTORE DUP1 PUSH1 0xA0 SHR PUSH1 0xFF AND ISZERO ISZERO PUSH1 0x80 MLOAD PUSH2 0x200 ADD MSTORE DUP1 PUSH1 0xA8 SHR PUSH1 0xFF AND ISZERO ISZERO PUSH1 0x80 MLOAD PUSH2 0x220 ADD MSTORE PUSH1 0x80 MLOAD PUSH2 0x240 ADD SWAP1 PUSH1 0xB0 SHR PUSH1 0xFF AND SWAP1 PUSH2 0x88A SWAP2 PUSH2 0x17C9 JUMP JUMPDEST PUSH1 0x80 MLOAD DUP1 SWAP2 SUB SWAP1 RETURN JUMPDEST CALLVALUE PUSH2 0x13C JUMPI PUSH1 0x20 DUP1 PUSH1 0x3 NOT CALLDATASIZE ADD SLT PUSH2 0x13C JUMPI PUSH1 0x4 CALLDATALOAD PUSH1 0x1 PUSH1 0x1 PUSH1 0x40 SHL SUB DUP2 GT PUSH2 0x13C JUMPI PUSH2 0x8C4 SWAP1 CALLDATASIZE SWAP1 PUSH1 0x4 ADD PUSH2 0x161F JUMP JUMPDEST PUSH2 0x8CC PUSH2 0x18A6 JUMP JUMPDEST PUSH1 0x40 MLOAD PUSH2 0x8E8 PUSH1 0xFF DUP4 MLOAD SWAP3 DUP6 DUP2 DUP2 DUP8 ADD SWAP6 PUSH2 0x2CA DUP2 DUP4 DUP10 PUSH2 0x16A1 JUMP JUMPDEST PUSH1 0xFF PUSH1 0xF PUSH1 0x40 MLOAD DUP6 DUP2 DUP7 MLOAD PUSH2 0x8FE DUP2 DUP4 DUP10 PUSH2 0x16A1 JUMP JUMPDEST DUP2 ADD PUSH1 0x1 DUP2 MSTORE SUB ADD SWAP1 KECCAK256 ADD SLOAD PUSH1 0xA0 SHR AND PUSH2 0x9EA JUMPI SWAP1 PUSH1 0xF PUSH2 0x992 DUP5 PUSH2 0x9B5 SWAP5 DUP4 PUSH1 0x40 MLOAD DUP4 DUP2 DUP9 MLOAD PUSH2 0x930 DUP2 DUP4 DUP9 PUSH2 0x16A1 JUMP JUMPDEST DUP2 ADD PUSH1 0x1 DUP2 MSTORE SUB ADD SWAP1 KECCAK256 ADD PUSH1 0x1 PUSH1 0xA0 SHL PUSH1 0xFF PUSH1 0xA0 SHL NOT DUP3 SLOAD AND OR SWAP1 SSTORE DUP4 PUSH1 0x40 MLOAD DUP4 DUP2 DUP9 MLOAD PUSH2 0x95F DUP2 DUP4 DUP9 PUSH2 0x16A1 JUMP JUMPDEST DUP2 ADD PUSH1 0x1 DUP2 MSTORE SUB ADD SWAP1 KECCAK256 ADD CALLER PUSH12 0xFFFFFFFFFFFFFFFFFFFFFFFF PUSH1 0xA0 SHL DUP3 SLOAD AND OR SWAP1 SSTORE PUSH1 0x40 MLOAD DUP1 SWAP4 DUP2 SWAP3 DUP8 MLOAD SWAP3 DUP4 SWAP2 PUSH2 0x16A1 JUMP JUMPDEST PUSH1 0x1 SWAP1 DUP3 ADD SWAP1 DUP2 MSTORE SUB ADD SWAP1 KECCAK256 ADD DUP1 SLOAD PUSH1 0xFF PUSH1 0xB0 SHL NOT AND PUSH1 0x1 PUSH1 0xB0 SHL OR SWAP1 SSTORE PUSH2 0x1C4E JUMP JUMPDEST PUSH1 0x40 MLOAD SWAP1 TIMESTAMP DUP3 MSTORE PUSH32 0xDC67450DA5BA97F56F673A8BFA2A9BC155CB229647D08E2816A25C06909A47A8 DUP4 CALLER SWAP4 LOG3 PUSH1 0x40 MLOAD PUSH1 0x1 DUP2 MSTORE RETURN JUMPDEST PUSH1 0x40 MLOAD PUSH3 0x461BCD PUSH1 0xE5 SHL DUP2 MSTORE PUSH1 0x4 DUP2 ADD DUP5 SWAP1 MSTORE PUSH1 0x10 PUSH1 0x24 DUP3 ADD MSTORE PUSH16 0x105B1C9958591E48185C1C1C9BDD9959 PUSH1 0x82 SHL PUSH1 0x44 DUP3 ADD MSTORE PUSH1 0x64 SWAP1 REVERT JUMPDEST CALLVALUE PUSH2 0x13C JUMPI PUSH1 0x40 CALLDATASIZE PUSH1 0x3 NOT ADD SLT PUSH2 0x13C JUMPI PUSH2 0xA3B PUSH2 0x168B JUMP JUMPDEST PUSH1 0x4 CALLDATALOAD PUSH1 0x0 MSTORE PUSH1 0x0 PUSH1 0x20 MSTORE PUSH1 0x40 PUSH1 0x0 KECCAK256 SWAP1 PUSH1 0x1 DUP1 PUSH1 0xA0 SHL SUB AND PUSH1 0x0 MSTORE PUSH1 0x20 MSTORE PUSH1 0x20 PUSH1 0xFF PUSH1 0x40 PUSH1 0x0 KECCAK256 SLOAD AND PUSH1 0x40 MLOAD SWAP1 ISZERO ISZERO DUP2 MSTORE RETURN JUMPDEST CALLVALUE PUSH2 0x13C JUMPI PUSH1 0x20 CALLDATASIZE PUSH1 0x3 NOT ADD SLT PUSH2 0x13C JUMPI PUSH2 0x13A PUSH2 0xA8B PUSH2 0x1675 JUMP JUMPDEST PUSH2 0xA93 PUSH2 0x186C JUMP JUMPDEST PUSH1 0x0 DUP1 MLOAD PUSH1 0x20 PUSH2 0x1CBB DUP4 CODECOPY DUP2 MLOAD SWAP2 MSTORE PUSH1 0x0 SWAP1 DUP2 MSTORE PUSH1 0x20 MSTORE PUSH32 0x93448E077BAA9F1F1990BEB53E302494BB36D2FE3A11944845DFDB71D35AC065 SLOAD PUSH2 0xAD5 SWAP1 PUSH2 0x18F0 JUMP JUMPDEST PUSH2 0x19B6 JUMP JUMPDEST CALLVALUE PUSH2 0x13C JUMPI PUSH1 0x0 CALLDATASIZE PUSH1 0x3 NOT ADD SLT PUSH2 0x13C JUMPI PUSH1 0x20 PUSH1 0x40 MLOAD PUSH1 0x0 DUP1 MLOAD PUSH1 0x20 PUSH2 0x1CDB DUP4 CODECOPY DUP2 MLOAD SWAP2 MSTORE DUP2 MSTORE RETURN JUMPDEST CALLVALUE PUSH2 0x13C JUMPI PUSH2 0x1A0 CALLDATASIZE PUSH1 0x3 NOT ADD SLT PUSH2 0x13C JUMPI PUSH1 0x1 PUSH1 0x1 PUSH1 0x40 SHL SUB PUSH1 0x4 CALLDATALOAD DUP2 DUP2 GT PUSH2 0x13C JUMPI PUSH2 0xB35 SWAP1 CALLDATASIZE SWAP1 PUSH1 0x4 ADD PUSH2 0x161F JUMP JUMPDEST PUSH1 0x24 CALLDATALOAD DUP3 DUP2 GT PUSH2 0x13C JUMPI PUSH2 0xB4D SWAP1 CALLDATASIZE SWAP1 PUSH1 0x4 ADD PUSH2 0x161F JUMP JUMPDEST SWAP2 PUSH1 0x44 CALLDATALOAD DUP2 DUP2 GT PUSH2 0x13C JUMPI PUSH2 0xB66 SWAP1 CALLDATASIZE SWAP1 PUSH1 0x4 ADD PUSH2 0x161F JUMP JUMPDEST PUSH1 0x64 CALLDATALOAD DUP3 DUP2 GT PUSH2 0x13C JUMPI PUSH2 0xB7E SWAP1 CALLDATASIZE SWAP1 PUSH1 0x4 ADD PUSH2 0x161F JUMP JUMPDEST SWAP2 PUSH1 0x84 CALLDATALOAD DUP2 DUP2 GT PUSH2 0x13C JUMPI PUSH2 0xB97 SWAP1 CALLDATASIZE SWAP1 PUSH1 0x4 ADD PUSH2 0x161F JUMP JUMPDEST SWAP1 PUSH1 0xA4 CALLDATALOAD DUP2 DUP2 GT PUSH2 0x13C JUMPI PUSH2 0xBB0 SWAP1 CALLDATASIZE SWAP1 PUSH1 0x4 ADD PUSH2 0x161F JUMP JUMPDEST PUSH1 0xC4 CALLDATALOAD DUP3 DUP2 GT PUSH2 0x13C JUMPI PUSH2 0xBC8 SWAP1 CALLDATASIZE SWAP1 PUSH1 0x4 ADD PUSH2 0x161F JUMP JUMPDEST PUSH1 0xE4 CALLDATALOAD DUP4 DUP2 GT PUSH2 0x13C JUMPI PUSH2 0xBE0 SWAP1 CALLDATASIZE SWAP1 PUSH1 0x4 ADD PUSH2 0x161F JUMP JUMPDEST PUSH2 0x124 CALLDATALOAD DUP5 DUP2 GT PUSH2 0x13C JUMPI PUSH2 0xBF9 SWAP1 CALLDATASIZE SWAP1 PUSH1 0x4 ADD PUSH2 0x161F JUMP JUMPDEST SWAP2 PUSH2 0x144 CALLDATALOAD DUP6 DUP2 GT PUSH2 0x13C JUMPI PUSH2 0xC13 SWAP1 CALLDATASIZE SWAP1 PUSH1 0x4 ADD PUSH2 0x161F JUMP JUMPDEST SWAP4 PUSH2 0x164 CALLDATALOAD DUP7 DUP2 GT PUSH2 0x13C JUMPI PUSH2 0xC2D SWAP1 CALLDATASIZE SWAP1 PUSH1 0x4 ADD PUSH2 0x161F JUMP JUMPDEST SWAP6 PUSH2 0x184 CALLDATALOAD GT PUSH2 0x13C JUMPI PUSH2 0xC47 CALLDATASIZE PUSH2 0x184 CALLDATALOAD PUSH1 0x4 ADD PUSH2 0x161F JUMP JUMPDEST SWAP7 PUSH2 0xC50 PUSH2 0x18A6 JUMP JUMPDEST PUSH1 0xFF PUSH2 0xC6B PUSH1 0x20 DUP14 DUP2 PUSH1 0x40 MLOAD SWAP4 DUP3 DUP6 DUP1 SWAP5 MLOAD SWAP4 DUP5 SWAP3 ADD PUSH2 0x16A1 JUMP JUMPDEST DUP2 ADD PUSH1 0x2 DUP2 MSTORE SUB ADD SWAP1 KECCAK256 SLOAD AND PUSH2 0xFED JUMPI DUP11 MLOAD ISZERO PUSH2 0xFB1 JUMPI DUP12 MLOAD ISZERO PUSH2 0xF78 JUMPI PUSH1 0x40 MLOAD SWAP9 PUSH2 0xC96 DUP11 PUSH2 0x15E2 JUMP JUMPDEST DUP12 DUP11 MSTORE DUP13 PUSH1 0x20 DUP12 ADD MSTORE PUSH1 0x40 DUP11 ADD MSTORE DUP10 PUSH1 0x60 DUP11 ADD MSTORE PUSH1 0x80 DUP10 ADD MSTORE PUSH1 0xA0 DUP9 ADD MSTORE PUSH1 0xC0 DUP8 ADD MSTORE PUSH1 0xE0 DUP7 ADD MSTORE PUSH2 0x104 CALLDATALOAD PUSH2 0x100 DUP7 ADD MSTORE PUSH2 0x120 DUP6 ADD MSTORE PUSH2 0x140 DUP5 ADD MSTORE PUSH2 0x160 DUP4 ADD MSTORE PUSH2 0x180 DUP3 ADD MSTORE TIMESTAMP PUSH2 0x1A0 DUP3 ADD MSTORE CALLER PUSH2 0x1C0 DUP3 ADD MSTORE PUSH1 0x0 PUSH2 0x1E0 DUP3 ADD MSTORE PUSH1 0x0 PUSH2 0x200 DUP3 ADD MSTORE PUSH1 0x0 PUSH2 0x220 DUP3 ADD MSTORE PUSH1 0x0 PUSH2 0x240 DUP3 ADD MSTORE PUSH1 0x40 MLOAD PUSH1 0x20 DUP2 DUP6 MLOAD PUSH2 0xD23 DUP2 DUP4 DUP6 DUP11 ADD PUSH2 0x16A1 JUMP JUMPDEST DUP2 ADD PUSH1 0x1 DUP2 MSTORE SUB ADD SWAP1 KECCAK256 SWAP2 PUSH2 0xD39 DUP3 MLOAD DUP5 PUSH2 0x1B3F JUMP JUMPDEST PUSH2 0xD4A PUSH1 0x20 DUP4 ADD MLOAD PUSH1 0x1 DUP6 ADD PUSH2 0x1B3F JUMP JUMPDEST PUSH2 0xD5B PUSH1 0x40 DUP4 ADD MLOAD PUSH1 0x2 DUP6 ADD PUSH2 0x1B3F JUMP JUMPDEST PUSH2 0xD6C PUSH1 0x60 DUP4 ADD MLOAD PUSH1 0x3 DUP6 ADD PUSH2 0x1B3F JUMP JUMPDEST PUSH2 0xD7D PUSH1 0x80 DUP4 ADD MLOAD PUSH1 0x4 DUP6 ADD PUSH2 0x1B3F JUMP JUMPDEST PUSH2 0xD8E PUSH1 0xA0 DUP4 ADD MLOAD PUSH1 0x5 DUP6 ADD PUSH2 0x1B3F JUMP JUMPDEST PUSH2 0xD9F PUSH1 0xC0 DUP4 ADD MLOAD PUSH1 0x6 DUP6 ADD PUSH2 0x1B3F JUMP JUMPDEST PUSH2 0xDB0 PUSH1 0xE0 DUP4 ADD MLOAD PUSH1 0x7 DUP6 ADD PUSH2 0x1B3F JUMP JUMPDEST PUSH2 0x100 DUP3 ADD MLOAD PUSH1 0x8 DUP5 ADD SSTORE PUSH2 0xDCD PUSH2 0x120 DUP4 ADD MLOAD PUSH1 0x9 DUP6 ADD PUSH2 0x1B3F JUMP JUMPDEST PUSH2 0xDDF PUSH2 0x140 DUP4 ADD MLOAD PUSH1 0xA DUP6 ADD PUSH2 0x1B3F JUMP JUMPDEST PUSH2 0xDF1 PUSH2 0x160 DUP4 ADD MLOAD PUSH1 0xB DUP6 ADD PUSH2 0x1B3F JUMP JUMPDEST PUSH2 0xE03 PUSH2 0x180 DUP4 ADD MLOAD PUSH1 0xC DUP6 ADD PUSH2 0x1B3F JUMP JUMPDEST PUSH2 0x1A0 DUP3 ADD MLOAD PUSH1 0xD DUP5 ADD SSTORE PUSH2 0x1C0 DUP3 ADD MLOAD PUSH1 0xE DUP5 ADD DUP1 SLOAD PUSH1 0x1 PUSH1 0x1 PUSH1 0xA0 SHL SUB NOT AND PUSH1 0x1 PUSH1 0x1 PUSH1 0xA0 SHL SUB SWAP3 DUP4 AND OR SWAP1 SSTORE PUSH2 0x1E0 DUP4 ADD MLOAD PUSH1 0xF SWAP1 SWAP5 ADD DUP1 SLOAD PUSH2 0x200 DUP6 ADD MLOAD PUSH2 0x220 DUP7 ADD MLOAD PUSH2 0x240 SWAP1 SWAP7 ADD MLOAD SWAP7 SWAP1 SWAP4 AND SWAP6 SWAP5 SWAP2 SWAP3 SWAP1 SWAP2 ISZERO ISZERO PUSH1 0xA8 SHL PUSH1 0xFF PUSH1 0xA8 SHL AND SWAP1 ISZERO ISZERO PUSH1 0xA0 SHL PUSH1 0xFF PUSH1 0xA0 SHL AND PUSH1 0x5 DUP7 LT ISZERO PUSH2 0x5F0 JUMPI PUSH2 0xEDE SWAP7 PUSH1 0x20 SWAP7 PUSH1 0xFF PUSH1 0xB0 SHL SWAP1 PUSH1 0xB0 SHL AND SWAP4 PUSH9 0xFFFFFFFFFFFFFFFFFF PUSH1 0xB8 SHL AND OR OR OR OR SWAP1 SSTORE PUSH1 0x40 MLOAD DUP3 DUP2 DUP7 MLOAD PUSH2 0xEB6 DUP2 DUP4 DUP6 DUP12 ADD PUSH2 0x16A1 JUMP JUMPDEST DUP2 ADD PUSH1 0x2 DUP2 MSTORE SUB ADD SWAP1 KECCAK256 PUSH1 0x1 PUSH1 0xFF NOT DUP3 SLOAD AND OR SWAP1 SSTORE DUP2 PUSH1 0x40 MLOAD SWAP4 DUP3 DUP6 DUP1 SWAP5 MLOAD SWAP4 DUP5 SWAP3 ADD PUSH2 0x16A1 JUMP JUMPDEST DUP2 ADD PUSH1 0x3 DUP2 MSTORE SUB ADD SWAP1 KECCAK256 DUP1 SLOAD PUSH9 0x10000000000000000 DUP2 LT ISZERO PUSH2 0xF62 JUMPI PUSH2 0xF0A SWAP2 PUSH1 0x1 DUP3 ADD DUP2 SSTORE PUSH2 0x17D6 JUMP JUMPDEST PUSH2 0x1D2 JUMPI DUP2 PUSH2 0xF1F PUSH2 0xF2A SWAP4 PUSH2 0xF24 SWAP4 PUSH2 0x1B3F JUMP JUMPDEST PUSH2 0x1C4E JUMP JUMPDEST SWAP2 PUSH2 0x1C4E JUMP JUMPDEST PUSH1 0x40 MLOAD SWAP2 TIMESTAMP DUP4 MSTORE PUSH32 0xBAF6E1F686649127444E446A1D7F9614856ECCECA8B95EE1F76230584F42E8EC PUSH1 0x20 CALLER SWAP5 LOG4 PUSH1 0x20 PUSH1 0x40 MLOAD PUSH1 0x1 DUP2 MSTORE RETURN JUMPDEST PUSH4 0x4E487B71 PUSH1 0xE0 SHL PUSH1 0x0 MSTORE PUSH1 0x41 PUSH1 0x4 MSTORE PUSH1 0x24 PUSH1 0x0 REVERT JUMPDEST PUSH1 0x40 MLOAD PUSH3 0x461BCD PUSH1 0xE5 SHL DUP2 MSTORE PUSH1 0x20 PUSH1 0x4 DUP3 ADD MSTORE PUSH1 0x11 PUSH1 0x24 DUP3 ADD MSTORE PUSH17 0x13DDDB995C881251081C995C5D5A5C9959 PUSH1 0x7A SHL PUSH1 0x44 DUP3 ADD MSTORE PUSH1 0x64 SWAP1 REVERT JUMPDEST PUSH1 0x40 MLOAD PUSH3 0x461BCD PUSH1 0xE5 SHL DUP2 MSTORE PUSH1 0x20 PUSH1 0x4 DUP3 ADD MSTORE PUSH1 0x14 PUSH1 0x24 DUP3 ADD MSTORE PUSH20 0x141C9BDC195C9D1E481251081C995C5D5A5C9959 PUSH1 0x62 SHL PUSH1 0x44 DUP3 ADD MSTORE PUSH1 0x64 SWAP1 REVERT JUMPDEST PUSH1 0x40 MLOAD PUSH3 0x461BCD PUSH1 0xE5 SHL DUP2 MSTORE PUSH1 0x20 PUSH1 0x4 DUP3 ADD MSTORE PUSH1 0x17 PUSH1 0x24 DUP3 ADD MSTORE PUSH32 0x50726F706572747920616C726561647920657869737473000000000000000000 PUSH1 0x44 DUP3 ADD MSTORE PUSH1 0x64 SWAP1 REVERT JUMPDEST CALLVALUE PUSH2 0x13C JUMPI PUSH1 0x40 CALLDATASIZE PUSH1 0x3 NOT ADD SLT PUSH2 0x13C JUMPI PUSH1 0x1 PUSH1 0x1 PUSH1 0x40 SHL SUB PUSH1 0x4 CALLDATALOAD DUP2 DUP2 GT PUSH2 0x13C JUMPI PUSH2 0x1063 SWAP1 CALLDATASIZE SWAP1 PUSH1 0x4 ADD PUSH2 0x161F JUMP JUMPDEST SWAP1 PUSH1 0x24 CALLDATALOAD SWAP1 DUP2 GT PUSH2 0x13C JUMPI PUSH2 0x107C SWAP1 CALLDATASIZE SWAP1 PUSH1 0x4 ADD PUSH2 0x161F JUMP JUMPDEST PUSH2 0x1084 PUSH2 0x1804 JUMP JUMPDEST PUSH1 0x40 MLOAD SWAP2 DUP1 MLOAD PUSH2 0x10A3 PUSH1 0xFF PUSH1 0x20 SWAP6 DUP7 DUP2 DUP2 DUP8 ADD SWAP6 PUSH2 0x2CA DUP2 DUP4 DUP10 PUSH2 0x16A1 JUMP JUMPDEST PUSH1 0xFF PUSH1 0xF PUSH1 0x40 MLOAD DUP7 DUP2 DUP7 MLOAD PUSH2 0x10B9 DUP2 DUP4 DUP10 PUSH2 0x16A1 JUMP JUMPDEST DUP2 ADD PUSH1 0x1 DUP2 MSTORE SUB ADD SWAP1 KECCAK256 ADD SLOAD PUSH1 0xA8 SHR AND PUSH2 0x1189 JUMPI SWAP1 PUSH1 0xF PUSH2 0x111B DUP6 PUSH2 0x113E SWAP5 DUP4 PUSH1 0x40 MLOAD DUP4 DUP2 DUP9 MLOAD PUSH2 0x10EB DUP2 DUP4 DUP9 PUSH2 0x16A1 JUMP JUMPDEST PUSH1 0x1 SWAP1 DUP3 ADD SWAP1 DUP2 MSTORE SUB ADD SWAP1 KECCAK256 ADD DUP1 SLOAD PUSH1 0xFF PUSH1 0xA8 SHL NOT AND PUSH1 0x1 PUSH1 0xA8 SHL OR SWAP1 SSTORE PUSH1 0x40 MLOAD DUP6 MLOAD SWAP1 SWAP4 DUP5 SWAP3 DUP3 SWAP1 DUP5 SWAP1 PUSH2 0x16A1 JUMP JUMPDEST PUSH1 0x1 SWAP1 DUP3 ADD SWAP1 DUP2 MSTORE SUB ADD SWAP1 KECCAK256 ADD DUP1 SLOAD PUSH1 0xFF PUSH1 0xB0 SHL NOT AND PUSH1 0x3 PUSH1 0xB0 SHL OR SWAP1 SSTORE PUSH2 0x1C4E JUMP JUMPDEST PUSH32 0x853C948092888845E1D6B2E6E9BF766337CCF85B4916D54635CEEF7912588042 PUSH2 0x1174 PUSH1 0x40 MLOAD SWAP4 PUSH1 0x40 DUP6 MSTORE PUSH1 0x40 DUP6 ADD SWAP1 PUSH2 0x16C4 JUMP JUMPDEST SWAP3 TIMESTAMP DUP6 DUP3 ADD MSTORE DUP1 CALLER SWAP5 SUB SWAP1 LOG3 PUSH1 0x40 MLOAD PUSH1 0x1 DUP2 MSTORE RETURN JUMPDEST PUSH1 0x40 MLOAD PUSH3 0x461BCD PUSH1 0xE5 SHL DUP2 MSTORE PUSH1 0x4 DUP2 ADD DUP6 SWAP1 MSTORE PUSH1 0xE PUSH1 0x24 DUP3 ADD MSTORE PUSH14 0x20B63932B0B23C90333937BD32B7 PUSH1 0x91 SHL PUSH1 0x44 DUP3 ADD MSTORE PUSH1 0x64 SWAP1 REVERT JUMPDEST CALLVALUE PUSH2 0x13C JUMPI PUSH1 0x20 DUP1 PUSH1 0x3 NOT CALLDATASIZE ADD SLT PUSH2 0x13C JUMPI PUSH1 0x1 PUSH1 0x1 PUSH1 0x40 SHL SUB PUSH1 0x4 CALLDATALOAD DUP2 DUP2 GT PUSH2 0x13C JUMPI DUP3 PUSH2 0x11F5 PUSH2 0x1208 SWAP3 CALLDATASIZE SWAP1 PUSH1 0x4 ADD PUSH2 0x161F JUMP JUMPDEST DUP2 PUSH1 0x40 MLOAD SWAP4 DUP3 DUP6 DUP1 SWAP5 MLOAD SWAP4 DUP5 SWAP3 ADD PUSH2 0x16A1 JUMP JUMPDEST DUP2 ADD PUSH1 0x3 DUP2 MSTORE SUB ADD SWAP1 KECCAK256 DUP1 SLOAD SWAP2 DUP3 GT PUSH2 0xF62 JUMPI DUP3 SWAP1 PUSH1 0x40 MLOAD SWAP3 PUSH2 0x1230 DUP4 DUP3 PUSH1 0x5 SHL ADD DUP6 PUSH2 0x15FE JUMP JUMPDEST DUP1 DUP5 MSTORE DUP3 DUP5 ADD DUP1 SWAP3 PUSH1 0x0 MSTORE DUP4 PUSH1 0x0 KECCAK256 PUSH1 0x0 SWAP2 JUMPDEST DUP4 DUP4 LT PUSH2 0x12AA JUMPI POP POP POP POP PUSH1 0x40 MLOAD SWAP2 DUP1 DUP4 ADD SWAP4 DUP2 DUP5 MSTORE MLOAD DUP1 SWAP5 MSTORE PUSH1 0x40 DUP4 ADD SWAP4 PUSH1 0x40 DUP2 PUSH1 0x5 SHL DUP6 ADD ADD SWAP3 SWAP2 PUSH1 0x0 SWAP6 JUMPDEST DUP3 DUP8 LT PUSH2 0x127E JUMPI DUP6 DUP6 SUB DUP7 RETURN JUMPDEST SWAP1 SWAP2 SWAP3 SWAP4 DUP3 DUP1 PUSH2 0x129A PUSH1 0x1 SWAP4 PUSH1 0x3F NOT DUP11 DUP3 SUB ADD DUP7 MSTORE DUP9 MLOAD PUSH2 0x16C4 JUMP JUMPDEST SWAP7 ADD SWAP3 ADD SWAP7 ADD SWAP6 SWAP3 SWAP2 SWAP1 SWAP3 PUSH2 0x1271 JUMP JUMPDEST PUSH1 0x1 DUP7 DUP2 SWAP3 PUSH2 0x12BB DUP6 SWAP11 SWAP10 SWAP11 PUSH2 0x1723 JUMP JUMPDEST DUP2 MSTORE ADD SWAP3 ADD SWAP3 ADD SWAP2 SWAP1 SWAP6 SWAP5 SWAP6 PUSH2 0x1243 JUMP JUMPDEST CALLVALUE PUSH2 0x13C JUMPI PUSH1 0x0 CALLDATASIZE PUSH1 0x3 NOT ADD SLT PUSH2 0x13C JUMPI PUSH1 0x20 PUSH1 0x40 MLOAD PUSH1 0x0 DUP1 MLOAD PUSH1 0x20 PUSH2 0x1CBB DUP4 CODECOPY DUP2 MLOAD SWAP2 MSTORE DUP2 MSTORE RETURN JUMPDEST CALLVALUE PUSH2 0x13C JUMPI PUSH1 0x40 CALLDATASIZE PUSH1 0x3 NOT ADD SLT PUSH2 0x13C JUMPI PUSH2 0x130E PUSH2 0x168B JUMP JUMPDEST CALLER PUSH1 0x1 PUSH1 0x1 PUSH1 0xA0 SHL SUB DUP3 AND SUB PUSH2 0x132A JUMPI PUSH2 0x13A SWAP1 PUSH1 0x4 CALLDATALOAD PUSH2 0x1ACA JUMP JUMPDEST PUSH1 0x40 MLOAD PUSH4 0x334BD919 PUSH1 0xE1 SHL DUP2 MSTORE PUSH1 0x4 SWAP1 REVERT JUMPDEST CALLVALUE PUSH2 0x13C JUMPI PUSH1 0x40 CALLDATASIZE PUSH1 0x3 NOT ADD SLT PUSH2 0x13C JUMPI PUSH2 0x13A PUSH1 0x4 CALLDATALOAD PUSH2 0x135B PUSH2 0x168B JUMP JUMPDEST SWAP1 DUP1 PUSH1 0x0 MSTORE PUSH1 0x0 PUSH1 0x20 MSTORE PUSH2 0x1376 PUSH1 0x1 PUSH1 0x40 PUSH1 0x0 KECCAK256 ADD SLOAD PUSH2 0x18F0 JUMP JUMPDEST PUSH2 0x1A51 JUMP JUMPDEST CALLVALUE PUSH2 0x13C JUMPI PUSH1 0x20 CALLDATASIZE PUSH1 0x3 NOT ADD SLT PUSH2 0x13C JUMPI PUSH1 0x4 CALLDATALOAD PUSH1 0x1 PUSH1 0x1 PUSH1 0x40 SHL SUB DUP2 GT PUSH2 0x13C JUMPI PUSH1 0xFF PUSH2 0x13B3 PUSH1 0x20 PUSH2 0x11F5 DUP2 SWAP5 CALLDATASIZE SWAP1 PUSH1 0x4 ADD PUSH2 0x161F JUMP JUMPDEST DUP2 ADD PUSH1 0x2 DUP2 MSTORE SUB ADD SWAP1 KECCAK256 SLOAD AND PUSH1 0x40 MLOAD SWAP1 ISZERO ISZERO DUP2 MSTORE RETURN JUMPDEST CALLVALUE PUSH2 0x13C JUMPI PUSH1 0x20 CALLDATASIZE PUSH1 0x3 NOT ADD SLT PUSH2 0x13C JUMPI PUSH2 0x13A PUSH2 0x13E5 PUSH2 0x1675 JUMP JUMPDEST PUSH2 0x13ED PUSH2 0x186C JUMP JUMPDEST PUSH1 0x0 DUP1 MLOAD PUSH1 0x20 PUSH2 0x1CDB DUP4 CODECOPY DUP2 MLOAD SWAP2 MSTORE PUSH1 0x0 SWAP1 DUP2 MSTORE PUSH1 0x20 MSTORE PUSH32 0xA64E760FA10CF8AF24DA398951E54CB88533DB46DCD0C44F1957B03D800BE243 SLOAD PUSH2 0x142F SWAP1 PUSH2 0x18F0 JUMP JUMPDEST PUSH2 0x1916 JUMP JUMPDEST CALLVALUE PUSH2 0x13C JUMPI PUSH1 0x20 CALLDATASIZE PUSH1 0x3 NOT ADD SLT PUSH2 0x13C JUMPI PUSH1 0x4 CALLDATALOAD PUSH1 0x0 MSTORE PUSH1 0x0 PUSH1 0x20 MSTORE PUSH1 0x20 PUSH1 0x1 PUSH1 0x40 PUSH1 0x0 KECCAK256 ADD SLOAD PUSH1 0x40 MLOAD SWAP1 DUP2 MSTORE RETURN JUMPDEST CALLVALUE PUSH2 0x13C JUMPI PUSH1 0x20 DUP1 PUSH1 0x3 NOT CALLDATASIZE ADD SLT PUSH2 0x13C JUMPI PUSH1 0x4 CALLDATALOAD PUSH1 0x1 PUSH1 0x1 PUSH1 0x40 SHL SUB DUP2 GT PUSH2 0x13C JUMPI PUSH2 0x1494 SWAP1 CALLDATASIZE SWAP1 PUSH1 0x4 ADD PUSH2 0x161F JUMP JUMPDEST PUSH2 0x149C PUSH2 0x1804 JUMP JUMPDEST PUSH1 0x40 MLOAD PUSH2 0x14B8 PUSH1 0xFF DUP4 MLOAD SWAP3 DUP6 DUP2 DUP2 DUP8 ADD SWAP6 PUSH2 0x2CA DUP2 DUP4 DUP10 PUSH2 0x16A1 JUMP JUMPDEST PUSH1 0xFF PUSH1 0xF PUSH1 0x40 MLOAD DUP6 DUP2 DUP7 MLOAD PUSH2 0x14CE DUP2 DUP4 DUP10 PUSH2 0x16A1 JUMP JUMPDEST DUP2 ADD PUSH1 0x1 DUP2 MSTORE SUB ADD SWAP1 KECCAK256 ADD SLOAD PUSH1 0xA8 SHR AND ISZERO PUSH2 0x155D JUMPI SWAP1 PUSH1 0xF PUSH2 0x992 DUP5 PUSH2 0x1528 SWAP5 DUP4 PUSH1 0x40 MLOAD DUP4 DUP2 DUP9 MLOAD PUSH2 0x1501 DUP2 DUP4 DUP9 PUSH2 0x16A1 JUMP JUMPDEST DUP2 ADD PUSH1 0x1 DUP2 MSTORE SUB ADD SWAP1 KECCAK256 ADD PUSH1 0xFF PUSH1 0xA8 SHL NOT DUP2 SLOAD AND SWAP1 SSTORE PUSH1 0x40 MLOAD DUP1 SWAP4 DUP2 SWAP3 DUP8 MLOAD SWAP3 DUP4 SWAP2 PUSH2 0x16A1 JUMP JUMPDEST PUSH1 0x40 MLOAD SWAP1 TIMESTAMP DUP3 MSTORE PUSH32 0xEA2E83DF0903C28B1EE2C10B6B07F5233ACA0EEC8A7BA832D824A0A320F9342B DUP4 CALLER SWAP4 LOG3 PUSH1 0x40 MLOAD PUSH1 0x1 DUP2 MSTORE RETURN JUMPDEST PUSH1 0x40 MLOAD PUSH3 0x461BCD PUSH1 0xE5 SHL DUP2 MSTORE PUSH1 0x4 DUP2 ADD DUP5 SWAP1 MSTORE PUSH1 0xA PUSH1 0x24 DUP3 ADD MSTORE PUSH10 0x2737BA10333937BD32B7 PUSH1 0xB1 SHL PUSH1 0x44 DUP3 ADD MSTORE PUSH1 0x64 SWAP1 REVERT JUMPDEST CALLVALUE PUSH2 0x13C JUMPI PUSH1 0x20 CALLDATASIZE PUSH1 0x3 NOT ADD SLT PUSH2 0x13C JUMPI PUSH1 0x4 CALLDATALOAD SWAP1 PUSH4 0xFFFFFFFF PUSH1 0xE0 SHL DUP3 AND DUP1 SWAP3 SUB PUSH2 0x13C JUMPI PUSH1 0x20 SWAP2 PUSH4 0x7965DB0B PUSH1 0xE0 SHL DUP2 EQ SWAP1 DUP2 ISZERO PUSH2 0x15D1 JUMPI JUMPDEST POP ISZERO ISZERO DUP2 MSTORE RETURN JUMPDEST PUSH4 0x1FFC9A7 PUSH1 0xE0 SHL EQ SWAP1 POP DUP4 PUSH2 0x15CA JUMP JUMPDEST PUSH2 0x260 DUP2 ADD SWAP1 DUP2 LT PUSH1 0x1 PUSH1 0x1 PUSH1 0x40 SHL SUB DUP3 GT OR PUSH2 0xF62 JUMPI PUSH1 0x40 MSTORE JUMP JUMPDEST SWAP1 PUSH1 0x1F DUP1 NOT SWAP2 ADD AND DUP2 ADD SWAP1 DUP2 LT PUSH1 0x1 PUSH1 0x1 PUSH1 0x40 SHL SUB DUP3 GT OR PUSH2 0xF62 JUMPI PUSH1 0x40 MSTORE JUMP JUMPDEST DUP2 PUSH1 0x1F DUP3 ADD SLT ISZERO PUSH2 0x13C JUMPI DUP1 CALLDATALOAD SWAP1 PUSH1 0x1 PUSH1 0x1 PUSH1 0x40 SHL SUB DUP3 GT PUSH2 0xF62 JUMPI PUSH1 0x40 MLOAD SWAP3 PUSH2 0x1653 PUSH1 0x1F DUP5 ADD PUSH1 0x1F NOT AND PUSH1 0x20 ADD DUP6 PUSH2 0x15FE JUMP JUMPDEST DUP3 DUP5 MSTORE PUSH1 0x20 DUP4 DUP4 ADD ADD GT PUSH2 0x13C JUMPI DUP2 PUSH1 0x0 SWAP3 PUSH1 0x20 DUP1 SWAP4 ADD DUP4 DUP7 ADD CALLDATACOPY DUP4 ADD ADD MSTORE SWAP1 JUMP JUMPDEST PUSH1 0x4 CALLDATALOAD SWAP1 PUSH1 0x1 PUSH1 0x1 PUSH1 0xA0 SHL SUB DUP3 AND DUP3 SUB PUSH2 0x13C JUMPI JUMP JUMPDEST PUSH1 0x24 CALLDATALOAD SWAP1 PUSH1 0x1 PUSH1 0x1 PUSH1 0xA0 SHL SUB DUP3 AND DUP3 SUB PUSH2 0x13C JUMPI JUMP JUMPDEST PUSH1 0x0 JUMPDEST DUP4 DUP2 LT PUSH2 0x16B4 JUMPI POP POP PUSH1 0x0 SWAP2 ADD MSTORE JUMP JUMPDEST DUP2 DUP2 ADD MLOAD DUP4 DUP3 ADD MSTORE PUSH1 0x20 ADD PUSH2 0x16A4 JUMP JUMPDEST SWAP1 PUSH1 0x20 SWAP2 PUSH2 0x16DD DUP2 MLOAD DUP1 SWAP3 DUP2 DUP6 MSTORE DUP6 DUP1 DUP7 ADD SWAP2 ADD PUSH2 0x16A1 JUMP JUMPDEST PUSH1 0x1F ADD PUSH1 0x1F NOT AND ADD ADD SWAP1 JUMP JUMPDEST SWAP1 PUSH1 0x1 DUP3 DUP2 SHR SWAP3 AND DUP1 ISZERO PUSH2 0x1719 JUMPI JUMPDEST PUSH1 0x20 DUP4 LT EQ PUSH2 0x1703 JUMPI JUMP JUMPDEST PUSH4 0x4E487B71 PUSH1 0xE0 SHL PUSH1 0x0 MSTORE PUSH1 0x22 PUSH1 0x4 MSTORE PUSH1 0x24 PUSH1 0x0 REVERT JUMPDEST SWAP2 PUSH1 0x7F AND SWAP2 PUSH2 0x16F8 JUMP JUMPDEST SWAP1 PUSH1 0x40 MLOAD SWAP2 DUP3 PUSH1 0x0 DUP3 SLOAD SWAP3 PUSH2 0x1737 DUP5 PUSH2 0x16E9 JUMP JUMPDEST SWAP1 DUP2 DUP5 MSTORE PUSH1 0x1 SWAP5 DUP6 DUP2 AND SWAP1 DUP2 PUSH1 0x0 EQ PUSH2 0x17A6 JUMPI POP PUSH1 0x1 EQ PUSH2 0x1763 JUMPI JUMPDEST POP POP PUSH2 0x1761 SWAP3 POP SUB DUP4 PUSH2 0x15FE JUMP JUMPDEST JUMP JUMPDEST SWAP1 SWAP4 SWAP2 POP PUSH1 0x0 MSTORE PUSH1 0x20 SWAP1 DUP2 PUSH1 0x0 KECCAK256 SWAP4 PUSH1 0x0 SWAP2 JUMPDEST DUP2 DUP4 LT PUSH2 0x178E JUMPI POP POP PUSH2 0x1761 SWAP4 POP DUP3 ADD ADD CODESIZE DUP1 PUSH2 0x1753 JUMP JUMPDEST DUP6 SLOAD DUP9 DUP5 ADD DUP6 ADD MSTORE SWAP5 DUP6 ADD SWAP5 DUP8 SWAP5 POP SWAP2 DUP4 ADD SWAP2 PUSH2 0x1776 JUMP JUMPDEST SWAP2 POP POP PUSH2 0x1761 SWAP5 POP PUSH1 0x20 SWAP3 POP PUSH1 0xFF NOT AND DUP3 DUP5 ADD MSTORE ISZERO ISZERO PUSH1 0x5 SHL DUP3 ADD ADD CODESIZE DUP1 PUSH2 0x1753 JUMP JUMPDEST SWAP1 PUSH1 0x5 DUP3 LT ISZERO PUSH2 0x5F0 JUMPI MSTORE JUMP JUMPDEST DUP1 SLOAD DUP3 LT ISZERO PUSH2 0x17EE JUMPI PUSH1 0x0 MSTORE PUSH1 0x20 PUSH1 0x0 KECCAK256 ADD SWAP1 PUSH1 0x0 SWAP1 JUMP JUMPDEST PUSH4 0x4E487B71 PUSH1 0xE0 SHL PUSH1 0x0 MSTORE PUSH1 0x32 PUSH1 0x4 MSTORE PUSH1 0x24 PUSH1 0x0 REVERT JUMPDEST CALLER PUSH1 0x0 SWAP1 DUP2 MSTORE PUSH32 0xA64E760FA10CF8AF24DA398951E54CB88533DB46DCD0C44F1957B03D800BE242 PUSH1 0x20 MSTORE PUSH1 0x40 SWAP1 KECCAK256 SLOAD PUSH1 0x0 DUP1 MLOAD PUSH1 0x20 PUSH2 0x1CDB DUP4 CODECOPY DUP2 MLOAD SWAP2 MSTORE SWAP1 PUSH1 0xFF AND ISZERO PUSH2 0x184E JUMPI POP JUMP JUMPDEST PUSH1 0x44 SWAP1 PUSH1 0x40 MLOAD SWAP1 PUSH4 0xE2517D3F PUSH1 0xE0 SHL DUP3 MSTORE CALLER PUSH1 0x4 DUP4 ADD MSTORE PUSH1 0x24 DUP3 ADD MSTORE REVERT JUMPDEST CALLER PUSH1 0x0 SWAP1 DUP2 MSTORE PUSH32 0xAD3228B676F7D3CD4284A5443F17F1962B36E491B30A40B2405849E597BA5FB5 PUSH1 0x20 MSTORE PUSH1 0x40 DUP2 KECCAK256 SLOAD PUSH1 0xFF AND ISZERO PUSH2 0x184E JUMPI POP JUMP JUMPDEST CALLER PUSH1 0x0 SWAP1 DUP2 MSTORE PUSH32 0x93448E077BAA9F1F1990BEB53E302494BB36D2FE3A11944845DFDB71D35AC064 PUSH1 0x20 MSTORE PUSH1 0x40 SWAP1 KECCAK256 SLOAD PUSH1 0x0 DUP1 MLOAD PUSH1 0x20 PUSH2 0x1CBB DUP4 CODECOPY DUP2 MLOAD SWAP2 MSTORE SWAP1 PUSH1 0xFF AND ISZERO PUSH2 0x184E JUMPI POP JUMP JUMPDEST DUP1 PUSH1 0x0 MSTORE PUSH1 0x0 PUSH1 0x20 MSTORE PUSH1 0x40 PUSH1 0x0 KECCAK256 CALLER PUSH1 0x0 MSTORE PUSH1 0x20 MSTORE PUSH1 0xFF PUSH1 0x40 PUSH1 0x0 KECCAK256 SLOAD AND ISZERO PUSH2 0x184E JUMPI POP JUMP JUMPDEST PUSH1 0x1 PUSH1 0x1 PUSH1 0xA0 SHL SUB AND PUSH1 0x0 DUP2 DUP2 MSTORE PUSH32 0xA64E760FA10CF8AF24DA398951E54CB88533DB46DCD0C44F1957B03D800BE242 PUSH1 0x20 MSTORE PUSH1 0x40 DUP2 KECCAK256 SLOAD SWAP1 SWAP2 SWAP1 PUSH1 0x0 DUP1 MLOAD PUSH1 0x20 PUSH2 0x1CDB DUP4 CODECOPY DUP2 MLOAD SWAP2 MSTORE SWAP1 PUSH1 0xFF AND PUSH2 0x19B1 JUMPI DUP1 DUP4 MSTORE DUP3 PUSH1 0x20 MSTORE PUSH1 0x40 DUP4 KECCAK256 DUP3 DUP5 MSTORE PUSH1 0x20 MSTORE PUSH1 0x40 DUP4 KECCAK256 PUSH1 0x1 PUSH1 0xFF NOT DUP3 SLOAD AND OR SWAP1 SSTORE PUSH32 0x2F8788117E7EFF1D82E926EC794901D17C78024A50270940304540A733656F0D CALLER SWAP4 DUP1 LOG4 PUSH1 0x1 SWAP1 JUMP JUMPDEST POP POP SWAP1 JUMP JUMPDEST PUSH1 0x1 PUSH1 0x1 PUSH1 0xA0 SHL SUB AND PUSH1 0x0 DUP2 DUP2 MSTORE PUSH32 0x93448E077BAA9F1F1990BEB53E302494BB36D2FE3A11944845DFDB71D35AC064 PUSH1 0x20 MSTORE PUSH1 0x40 DUP2 KECCAK256 SLOAD SWAP1 SWAP2 SWAP1 PUSH1 0x0 DUP1 MLOAD PUSH1 0x20 PUSH2 0x1CBB DUP4 CODECOPY DUP2 MLOAD SWAP2 MSTORE SWAP1 PUSH1 0xFF AND PUSH2 0x19B1 JUMPI DUP1 DUP4 MSTORE DUP3 PUSH1 0x20 MSTORE PUSH1 0x40 DUP4 KECCAK256 DUP3 DUP5 MSTORE PUSH1 0x20 MSTORE PUSH1 0x40 DUP4 KECCAK256 PUSH1 0x1 PUSH1 0xFF NOT DUP3 SLOAD AND OR SWAP1 SSTORE PUSH32 0x2F8788117E7EFF1D82E926EC794901D17C78024A50270940304540A733656F0D CALLER SWAP4 DUP1 LOG4 PUSH1 0x1 SWAP1 JUMP JUMPDEST SWAP1 PUSH1 0x0 SWAP2 DUP1 DUP4 MSTORE DUP3 PUSH1 0x20 MSTORE PUSH1 0x40 DUP4 KECCAK256 SWAP2 PUSH1 0x1 DUP1 PUSH1 0xA0 SHL SUB AND SWAP2 DUP3 DUP5 MSTORE PUSH1 0x20 MSTORE PUSH1 0xFF PUSH1 0x40 DUP5 KECCAK256 SLOAD AND ISZERO PUSH1 0x0 EQ PUSH2 0x19B1 JUMPI DUP1 DUP4 MSTORE DUP3 PUSH1 0x20 MSTORE PUSH1 0x40 DUP4 KECCAK256 DUP3 DUP5 MSTORE PUSH1 0x20 MSTORE PUSH1 0x40 DUP4 KECCAK256 PUSH1 0x1 PUSH1 0xFF NOT DUP3 SLOAD AND OR SWAP1 SSTORE PUSH32 0x2F8788117E7EFF1D82E926EC794901D17C78024A50270940304540A733656F0D CALLER SWAP4 DUP1 LOG4 PUSH1 0x1 SWAP1 JUMP JUMPDEST SWAP1 PUSH1 0x0 SWAP2 DUP1 DUP4 MSTORE DUP3 PUSH1 0x20 MSTORE PUSH1 0x40 DUP4 KECCAK256 SWAP2 PUSH1 0x1 DUP1 PUSH1 0xA0 SHL SUB AND SWAP2 DUP3 DUP5 MSTORE PUSH1 0x20 MSTORE PUSH1 0xFF PUSH1 0x40 DUP5 KECCAK256 SLOAD AND PUSH1 0x0 EQ PUSH2 0x19B1 JUMPI DUP1 DUP4 MSTORE DUP3 PUSH1 0x20 MSTORE PUSH1 0x40 DUP4 KECCAK256 DUP3 DUP5 MSTORE PUSH1 0x20 MSTORE PUSH1 0x40 DUP4 KECCAK256 PUSH1 0xFF NOT DUP2 SLOAD AND SWAP1 SSTORE PUSH32 0xF6391F5C32D9C69D2A47EA670B442974B53935D1EDC7FD64EB21E047A839171B CALLER SWAP4 DUP1 LOG4 PUSH1 0x1 SWAP1 JUMP JUMPDEST SWAP2 SWAP1 SWAP2 DUP3 MLOAD PUSH1 0x1 PUSH1 0x1 PUSH1 0x40 SHL SUB DUP2 GT PUSH2 0xF62 JUMPI PUSH2 0x1B5C DUP3 SLOAD PUSH2 0x16E9 JUMP JUMPDEST PUSH1 0x1F DUP2 GT PUSH2 0x1C06 JUMPI JUMPDEST POP PUSH1 0x20 DUP1 PUSH1 0x1F DUP4 GT PUSH1 0x1 EQ PUSH2 0x1BA2 JUMPI POP DUP2 SWAP3 SWAP4 SWAP5 PUSH1 0x0 SWAP3 PUSH2 0x1B97 JUMPI JUMPDEST POP POP DUP2 PUSH1 0x1 SHL SWAP2 PUSH1 0x0 NOT SWAP1 PUSH1 0x3 SHL SHR NOT AND OR SWAP1 SSTORE JUMP JUMPDEST ADD MLOAD SWAP1 POP CODESIZE DUP1 PUSH2 0x1B81 JUMP JUMPDEST SWAP1 PUSH1 0x1F NOT DUP4 AND SWAP6 DUP5 PUSH1 0x0 MSTORE DUP3 PUSH1 0x0 KECCAK256 SWAP3 PUSH1 0x0 SWAP1 JUMPDEST DUP9 DUP3 LT PUSH2 0x1BEE JUMPI POP POP DUP4 PUSH1 0x1 SWAP6 SWAP7 SWAP8 LT PUSH2 0x1BD5 JUMPI JUMPDEST POP POP POP DUP2 SHL ADD SWAP1 SSTORE JUMP JUMPDEST ADD MLOAD PUSH1 0x0 NOT PUSH1 0xF8 DUP5 PUSH1 0x3 SHL AND SHR NOT AND SWAP1 SSTORE CODESIZE DUP1 DUP1 PUSH2 0x1BCB JUMP JUMPDEST DUP1 PUSH1 0x1 DUP6 SWAP7 DUP3 SWAP5 SWAP7 DUP7 ADD MLOAD DUP2 SSTORE ADD SWAP6 ADD SWAP4 ADD SWAP1 PUSH2 0x1BB6 JUMP JUMPDEST PUSH1 0x0 DUP4 DUP2 MSTORE PUSH1 0x20 DUP2 KECCAK256 PUSH1 0x1F DUP5 ADD PUSH1 0x5 SHR DUP2 ADD SWAP3 PUSH1 0x20 DUP6 LT PUSH2 0x1C44 JUMPI JUMPDEST PUSH1 0x1F ADD PUSH1 0x5 SHR ADD SWAP2 JUMPDEST DUP3 DUP2 LT PUSH2 0x1C39 JUMPI POP POP PUSH2 0x1B65 JUMP JUMPDEST DUP2 DUP2 SSTORE PUSH1 0x1 ADD PUSH2 0x1C2B JUMP JUMPDEST SWAP1 SWAP3 POP DUP3 SWAP1 PUSH2 0x1C22 JUMP JUMPDEST PUSH2 0x1C66 SWAP1 PUSH1 0x20 PUSH1 0x40 MLOAD SWAP3 DUP3 DUP5 DUP1 SWAP5 MLOAD SWAP4 DUP5 SWAP3 ADD PUSH2 0x16A1 JUMP JUMPDEST DUP2 ADD SUB SWAP1 KECCAK256 SWAP1 JUMP JUMPDEST ISZERO PUSH2 0x1C75 JUMPI JUMP JUMPDEST PUSH1 0x40 MLOAD PUSH3 0x461BCD PUSH1 0xE5 SHL DUP2 MSTORE PUSH1 0x20 PUSH1 0x4 DUP3 ADD MSTORE PUSH1 0x17 PUSH1 0x24 DUP3 ADD MSTORE PUSH32 0x50726F706572747920646F6573206E6F74206578697374000000000000000000 PUSH1 0x44 DUP3 ADD MSTORE PUSH1 0x64 SWAP1 REVERT INVALID 0xD5 PUSH15 0x9B36A6BB6CCF81C326090D5D6B5F0D PUSH11 0x58C2373ADC2CF81A508F21 SHR 0xFB CODECOPY 0x25 0xE4 0x22 SWAP15 0xE3 PUSH9 0xAD63B1BDFF8C00B38F 0xAC PUSH12 0xFB78FBB3FE3AAE36BEB76983 0x4E PUSH24 0xA3A2646970667358221220F54C594E094D5140258335E80D PUSH25 0x1A727308B889655FEA27F30900C17324481464736F6C634300 ADDMOD EQ STOP CALLER "},"methodIdentifiers":{"DEFAULT_ADMIN_ROLE()":"a217fddf","LRO_ROLE()":"449d37c2","TEHSILDAR_ROLE()":"5f6c49ea","approveProperty(string)":"96530199","freezeProperty(string,string)":"5c4cc1e1","getOwnerProperties(string)":"4e22432b","getProperty(string)":"ab331a34","getRoleAdmin(bytes32)":"248a9ca3","grantLRORole(address)":"672037cd","grantRole(bytes32,address)":"2f2ff15d","grantTehsildarRole(address)":"286e98e1","hasRole(bytes32,address)":"91d14854","ownerProperties(string,uint256)":"d06e0722","properties(string)":"9be8f2a6","propertyExists(string)":"287283f1","registerProperty(string,string,string,string,string,string,string,string,uint256,string,string,string,string)":"5da3b683","renounceRole(bytes32,address)":"36568abe","revokeRole(bytes32,address)":"d547741f","supportsInterface(bytes4)":"01ffc9a7","unfreezeProperty(string)":"0a3314d3"}}}}}