{
  "_format": "hh-sol-artifact-1",
  "contractName": "PropertyTransfer",
  "sourceName": "contracts/PropertyTransfer.sol",
  "abi": [
    {
      "inputs": [
        {
          "internalType": "address",
          "name": "_propertyRegistryAddress",
          "type": "address"
        }
      ],
      "stateMutability": "nonpayable",
      "type": "constructor"
    },
    {
      "inputs": [],
      "name": "AccessControlBadConfirmation",
      "type": "error"
    },
    {
      "inputs": [
        {
          "internalType": "address",
          "name": "account",
          "type": "address"
        },
        {
          "internalType": "bytes32",
          "name": "neededRole",
          "type": "bytes32"
        }
      ],
      "name": "AccessControlUnauthorizedAccount",
      "type": "error"
    },
    {
      "anonymous": false,
      "inputs": [
        {
          "indexed": true,
          "internalType": "string",
          "name": "transferId",
          "type": "string"
        },
        {
          "indexed": false,
          "internalType": "string",
          "name": "challanHash",
          "type": "string"
        },
        {
          "indexed": false,
          "internalType": "uint256",
          "name": "timestamp",
          "type": "uint256"
        }
      ],
      "name": "PaymentUploaded",
      "type": "event"
    },
    {
      "anonymous": false,
      "inputs": [
        {
          "indexed": true,
          "internalType": "string",
          "name": "transferId",
          "type": "string"
        },
        {
          "indexed": true,
          "internalType": "address",
          "name": "verifiedBy",
          "type": "address"
        },
        {
          "indexed": false,
          "internalType": "uint256",
          "name": "timestamp",
          "type": "uint256"
        }
      ],
      "name": "PaymentVerified",
      "type": "event"
    },
    {
      "anonymous": false,
      "inputs": [
        {
          "indexed": true,
          "internalType": "bytes32",
          "name": "role",
          "type": "bytes32"
        },
        {
          "indexed": true,
          "internalType": "bytes32",
          "name": "previousAdminRole",
          "type": "bytes32"
        },
        {
          "indexed": true,
          "internalType": "bytes32",
          "name": "newAdminRole",
          "type": "bytes32"
        }
      ],
      "name": "RoleAdminChanged",
      "type": "event"
    },
    {
      "anonymous": false,
      "inputs": [
        {
          "indexed": true,
          "internalType": "bytes32",
          "name": "role",
          "type": "bytes32"
        },
        {
          "indexed": true,
          "internalType": "address",
          "name": "account",
          "type": "address"
        },
        {
          "indexed": true,
          "internalType": "address",
          "name": "sender",
          "type": "address"
        }
      ],
      "name": "RoleGranted",
      "type": "event"
    },
    {
      "anonymous": false,
      "inputs": [
        {
          "indexed": true,
          "internalType": "bytes32",
          "name": "role",
          "type": "bytes32"
        },
        {
          "indexed": true,
          "internalType": "address",
          "name": "account",
          "type": "address"
        },
        {
          "indexed": true,
          "internalType": "address",
          "name": "sender",
          "type": "address"
        }
      ],
      "name": "RoleRevoked",
      "type": "event"
    },
    {
      "anonymous": false,
      "inputs": [
        {
          "indexed": true,
          "internalType": "string",
          "name": "transferId",
          "type": "string"
        },
        {
          "indexed": true,
          "internalType": "address",
          "name": "approvedBy",
          "type": "address"
        },
        {
          "indexed": false,
          "internalType": "uint256",
          "name": "timestamp",
          "type": "uint256"
        }
      ],
      "name": "TransferApproved",
      "type": "event"
    },
    {
      "anonymous": false,
      "inputs": [
        {
          "indexed": true,
          "internalType": "string",
          "name": "transferId",
          "type": "string"
        },
        {
          "indexed": true,
          "internalType": "string",
          "name": "propertyId",
          "type": "string"
        },
        {
          "indexed": false,
          "internalType": "string",
          "name": "oldOwner",
          "type": "string"
        },
        {
          "indexed": false,
          "internalType": "string",
          "name": "newOwner",
          "type": "string"
        },
        {
          "indexed": false,
          "internalType": "uint256",
          "name": "timestamp",
          "type": "uint256"
        }
      ],
      "name": "TransferCompleted",
      "type": "event"
    },
    {
      "anonymous": false,
      "inputs": [
        {
          "indexed": true,
          "internalType": "string",
          "name": "transferId",
          "type": "string"
        },
        {
          "indexed": true,
          "internalType": "string",
          "name": "propertyId",
          "type": "string"
        },
        {
          "indexed": false,
          "internalType": "string",
          "name": "sellerId",
          "type": "string"
        },
        {
          "indexed": false,
          "internalType": "string",
          "name": "buyerId",
          "type": "string"
        },
        {
          "indexed": false,
          "internalType": "uint256",
          "name": "amount",
          "type": "uint256"
        },
        {
          "indexed": false,
          "internalType": "uint256",
          "name": "timestamp",
          "type": "uint256"
        }
      ],
      "name": "TransferInitiated",
      "type": "event"
    },
    {
      "anonymous": false,
      "inputs": [
        {
          "indexed": true,
          "internalType": "string",
          "name": "transferId",
          "type": "string"
        },
        {
          "indexed": true,
          "internalType": "address",
          "name": "rejectedBy",
          "type": "address"
        },
        {
          "indexed": false,
          "internalType": "string",
          "name": "reason",
          "type": "string"
        },
        {
          "indexed": false,
          "internalType": "uint256",
          "name": "timestamp",
          "type": "uint256"
        }
      ],
      "name": "TransferRejected",
      "type": "event"
    },
    {
      "inputs": [],
      "name": "BASIS_POINTS",
      "outputs": [
        {
          "internalType": "uint256",
          "name": "",
          "type": "uint256"
        }
      ],
      "stateMutability": "view",
      "type": "function"
    },
    {
      "inputs": [],
      "name": "DEFAULT_ADMIN_ROLE",
      "outputs": [
        {
          "internalType": "bytes32",
          "name": "",
          "type": "bytes32"
        }
      ],
      "stateMutability": "view",
      "type": "function"
    },
    {
      "inputs": [],
      "name": "LRO_ROLE",
      "outputs": [
        {
          "internalType": "bytes32",
          "name": "",
          "type": "bytes32"
        }
      ],
      "stateMutability": "view",
      "type": "function"
    },
    {
      "inputs": [],
      "name": "TAX_RATE",
      "outputs": [
        {
          "internalType": "uint256",
          "name": "",
          "type": "uint256"
        }
      ],
      "stateMutability": "view",
      "type": "function"
    },
    {
      "inputs": [],
      "name": "TEHSILDAR_ROLE",
      "outputs": [
        {
          "internalType": "bytes32",
          "name": "",
          "type": "bytes32"
        }
      ],
      "stateMutability": "view",
      "type": "function"
    },
    {
      "inputs": [
        {
          "internalType": "string",
          "name": "_transferId",
          "type": "string"
        }
      ],
      "name": "approveTransfer",
      "outputs": [
        {
          "internalType": "bool",
          "name": "",
          "type": "bool"
        }
      ],
      "stateMutability": "nonpayable",
      "type": "function"
    },
    {
      "inputs": [
        {
          "internalType": "uint256",
          "name": "_amount",
          "type": "uint256"
        }
      ],
      "name": "calculateTax",
      "outputs": [
        {
          "internalType": "uint256",
          "name": "buyerTax",
          "type": "uint256"
        },
        {
          "internalType": "uint256",
          "name": "sellerTax",
          "type": "uint256"
        },
        {
          "internalType": "uint256",
          "name": "total",
          "type": "uint256"
        }
      ],
      "stateMutability": "pure",
      "type": "function"
    },
    {
      "inputs": [
        {
          "internalType": "string",
          "name": "_transferId",
          "type": "string"
        }
      ],
      "name": "completeTransfer",
      "outputs": [
        {
          "internalType": "bool",
          "name": "",
          "type": "bool"
        }
      ],
      "stateMutability": "nonpayable",
      "type": "function"
    },
    {
      "inputs": [
        {
          "internalType": "string",
          "name": "_propertyId",
          "type": "string"
        }
      ],
      "name": "getPropertyTransferHistory",
      "outputs": [
        {
          "internalType": "string[]",
          "name": "",
          "type": "string[]"
        }
      ],
      "stateMutability": "view",
      "type": "function"
    },
    {
      "inputs": [
        {
          "internalType": "bytes32",
          "name": "role",
          "type": "bytes32"
        }
      ],
      "name": "getRoleAdmin",
      "outputs": [
        {
          "internalType": "bytes32",
          "name": "",
          "type": "bytes32"
        }
      ],
      "stateMutability": "view",
      "type": "function"
    },
    {
      "inputs": [
        {
          "internalType": "string",
          "name": "_transferId",
          "type": "string"
        }
      ],
      "name": "getTransfer",
      "outputs": [
        {
          "components": [
            {
              "internalType": "string",
              "name": "transferId",
              "type": "string"
            },
            {
              "internalType": "string",
              "name": "propertyId",
              "type": "string"
            },
            {
              "internalType": "string",
              "name": "sellerId",
              "type": "string"
            },
            {
              "internalType": "string",
              "name": "sellerCnic",
              "type": "string"
            },
            {
              "internalType": "string",
              "name": "buyerId",
              "type": "string"
            },
            {
              "internalType": "string",
              "name": "buyerCnic",
              "type": "string"
            },
            {
              "internalType": "string",
              "name": "buyerName",
              "type": "string"
            },
            {
              "internalType": "string",
              "name": "buyerFatherName",
              "type": "string"
            },
            {
              "internalType": "uint256",
              "name": "transferAmount",
              "type": "uint256"
            },
            {
              "internalType": "uint256",
              "name": "propertyTaxBuyer",
              "type": "uint256"
            },
            {
              "internalType": "uint256",
              "name": "propertyTaxSeller",
              "type": "uint256"
            },
            {
              "internalType": "uint256",
              "name": "totalAmount",
              "type": "uint256"
            },
            {
              "internalType": "string",
              "name": "paymentChallanHash",
              "type": "string"
            },
            {
              "internalType": "uint256",
              "name": "initiatedDate",
              "type": "uint256"
            },
            {
              "internalType": "uint256",
              "name": "expiryDate",
              "type": "uint256"
            },
            {
              "internalType": "address",
              "name": "approvedBy",
              "type": "address"
            },
            {
              "internalType": "bool",
              "name": "isPaymentVerified",
              "type": "bool"
            },
            {
              "internalType": "bool",
              "name": "isApproved",
              "type": "bool"
            },
            {
              "internalType": "bool",
              "name": "isCompleted",
              "type": "bool"
            },
            {
              "internalType": "enum PropertyTransfer.TransferStatus",
              "name": "status",
              "type": "uint8"
            }
          ],
          "internalType": "struct PropertyTransfer.Transfer",
          "name": "",
          "type": "tuple"
        }
      ],
      "stateMutability": "view",
      "type": "function"
    },
    {
      "inputs": [
        {
          "internalType": "bytes32",
          "name": "role",
          "type": "bytes32"
        },
        {
          "internalType": "address",
          "name": "account",
          "type": "address"
        }
      ],
      "name": "grantRole",
      "outputs": [],
      "stateMutability": "nonpayable",
      "type": "function"
    },
    {
      "inputs": [
        {
          "internalType": "bytes32",
          "name": "role",
          "type": "bytes32"
        },
        {
          "internalType": "address",
          "name": "account",
          "type": "address"
        }
      ],
      "name": "hasRole",
      "outputs": [
        {
          "internalType": "bool",
          "name": "",
          "type": "bool"
        }
      ],
      "stateMutability": "view",
      "type": "function"
    },
    {
      "inputs": [
        {
          "internalType": "string",
          "name": "_transferId",
          "type": "string"
        },
        {
          "internalType": "string",
          "name": "_propertyId",
          "type": "string"
        },
        {
          "internalType": "string",
          "name": "_sellerId",
          "type": "string"
        },
        {
          "internalType": "string",
          "name": "_sellerCnic",
          "type": "string"
        },
        {
          "internalType": "string",
          "name": "_buyerId",
          "type": "string"
        },
        {
          "internalType": "string",
          "name": "_buyerCnic",
          "type": "string"
        },
        {
          "internalType": "string",
          "name": "_buyerName",
          "type": "string"
        },
        {
          "internalType": "string",
          "name": "_buyerFatherName",
          "type": "string"
        },
        {
          "internalType": "uint256",
          "name": "_transferAmount",
          "type": "uint256"
        },
        {
          "internalType": "uint256",
          "name": "_durationDays",
          "type": "uint256"
        }
      ],
      "name": "initiateTransfer",
      "outputs": [
        {
          "internalType": "bool",
          "name": "",
          "type": "bool"
        }
      ],
      "stateMutability": "nonpayable",
      "type": "function"
    },
    {
      "inputs": [],
      "name": "propertyRegistry",
      "outputs": [
        {
          "internalType": "contract IPropertyRegistry",
          "name": "",
          "type": "address"
        }
      ],
      "stateMutability": "view",
      "type": "function"
    },
    {
      "inputs": [
        {
          "internalType": "string",
          "name": "",
          "type": "string"
        },
        {
          "internalType": "uint256",
          "name": "",
          "type": "uint256"
        }
      ],
      "name": "propertyTransferHistory",
      "outputs": [
        {
          "internalType": "string",
          "name": "",
          "type": "string"
        }
      ],
      "stateMutability": "view",
      "type": "function"
    },
    {
      "inputs": [
        {
          "internalType": "string",
          "name": "_transferId",
          "type": "string"
        },
        {
          "internalType": "string",
          "name": "_reason",
          "type": "string"
        }
      ],
      "name": "rejectTransfer",
      "outputs": [
        {
          "internalType": "bool",
          "name": "",
          "type": "bool"
        }
      ],
      "stateMutability": "nonpayable",
      "type": "function"
    },
    {
      "inputs": [
        {
          "internalType": "bytes32",
          "name": "role",
          "type": "bytes32"
        },
        {
          "internalType": "address",
          "name": "callerConfirmation",
          "type": "address"
        }
      ],
      "name": "renounceRole",
      "outputs": [],
      "stateMutability": "nonpayable",
      "type": "function"
    },
    {
      "inputs": [
        {
          "internalType": "bytes32",
          "name": "role",
          "type": "bytes32"
        },
        {
          "internalType": "address",
          "name": "account",
          "type": "address"
        }
      ],
      "name": "revokeRole",
      "outputs": [],
      "stateMutability": "nonpayable",
      "type": "function"
    },
    {
      "inputs": [
        {
          "internalType": "bytes4",
          "name": "interfaceId",
          "type": "bytes4"
        }
      ],
      "name": "supportsInterface",
      "outputs": [
        {
          "internalType": "bool",
          "name": "",
          "type": "bool"
        }
      ],
      "stateMutability": "view",
      "type": "function"
    },
    {
      "inputs": [
        {
          "internalType": "string",
          "name": "",
          "type": "string"
        }
      ],
      "name": "transferExists",
      "outputs": [
        {
          "internalType": "bool",
          "name": "",
          "type": "bool"
        }
      ],
      "stateMutability": "view",
      "type": "function"
    },
    {
      "inputs": [
        {
          "internalType": "string",
          "name": "",
          "type": "string"
        }
      ],
      "name": "transfers",
      "outputs": [
        {
          "internalType": "string",
          "name": "transferId",
          "type": "string"
        },
        {
          "internalType": "string",
          "name": "propertyId",
          "type": "string"
        },
        {
          "internalType": "string",
          "name": "sellerId",
          "type": "string"
        },
        {
          "internalType": "string",
          "name": "sellerCnic",
          "type": "string"
        },
        {
          "internalType": "string",
          "name": "buyerId",
          "type": "string"
        },
        {
          "internalType": "string",
          "name": "buyerCnic",
          "type": "string"
        },
        {
          "internalType": "string",
          "name": "buyerName",
          "type": "string"
        },
        {
          "internalType": "string",
          "name": "buyerFatherName",
          "type": "string"
        },
        {
          "internalType": "uint256",
          "name": "transferAmount",
          "type": "uint256"
        },
        {
          "internalType": "uint256",
          "name": "propertyTaxBuyer",
          "type": "uint256"
        },
        {
          "internalType": "uint256",
          "name": "propertyTaxSeller",
          "type": "uint256"
        },
        {
          "internalType": "uint256",
          "name": "totalAmount",
          "type": "uint256"
        },
        {
          "internalType": "string",
          "name": "paymentChallanHash",
          "type": "string"
        },
        {
          "internalType": "uint256",
          "name": "initiatedDate",
          "type": "uint256"
        },
        {
          "internalType": "uint256",
          "name": "expiryDate",
          "type": "uint256"
        },
        {
          "internalType": "address",
          "name": "approvedBy",
          "type": "address"
        },
        {
          "internalType": "bool",
          "name": "isPaymentVerified",
          "type": "bool"
        },
        {
          "internalType": "bool",
          "name": "isApproved",
          "type": "bool"
        },
        {
          "internalType": "bool",
          "name": "isCompleted",
          "type": "bool"
        },
        {
          "internalType": "enum PropertyTransfer.TransferStatus",
          "name": "status",
          "type": "uint8"
        }
      ],
      "stateMutability": "view",
      "type": "function"
    },
    {
      "inputs": [
        {
          "internalType": "string",
          "name": "_transferId",
          "type": "string"
        },
        {
          "internalType": "string",
          "name": "_challanHash",
          "type": "string"
        }
      ],
      "name": "uploadPaymentChallan",
      "outputs": [
        {
          "internalType": "bool",
          "name": "",
          "type": "bool"
        }
      ],
      "stateMutability": "nonpayable",
      "type": "function"
    },
    {
      "inputs": [
        {
          "internalType": "string",
          "name": "_transferId",
          "type": "string"
        }
      ],
      "name": "verifyPayment",
      "outputs": [
        {
          "internalType": "bool",
          "name": "",
          "type": "bool"
        }
      ],
      "stateMutability": "nonpayable",
      "type": "function"
    }
  ],
  "bytecode": "0x6080346200008657601f6200229138819003918201601f19168301916001600160401b038311848410176200008b578084926020946040528339810103126200008657516001600160a01b0381169081900362000086576200006133620000a1565b50600180546001600160a01b03191691909117905560405161215e9081620001338239f35b600080fd5b634e487b7160e01b600052604160045260246000fd5b6001600160a01b031660008181527fad3228b676f7d3cd4284a5443f17f1962b36e491b30a40b2405849e597ba5fb5602052604081205490919060ff166200012e57818052816020526040822081835260205260408220600160ff1982541617905533917f2f8788117e7eff1d82e926ec794901d17c78024a50270940304540a733656f0d8180a4600190565b509056fe60a080604052600436101561001357600080fd5b60003560e01c90816301ffc9a714611b175750806314fd6da814611a15578063248a9ca3146119e657806326b235da1461198557806326b703a71461195c5780632f2ff15d1461192b57806336568abe146118f2578063449d37c2146118b757806346f26e2814611713578063483a9310146116e2578063586d396b146115755780635f6c49ea1461153a5780637ec6cfca1461112d57806383f170be1461111057806384a1c23314610e3e5780638832d7d514610cc757806391d1485414610c87578063a216bbfa14610abb578063a217fddf14610a9f578063c8e658ec146109fd578063d547741f146109ca578063ddd037aa14610470578063e1f1c4a7146104535763f44198791461012757600080fd5b3461044e5760208060031936011261044e576004356001600160401b03811161044e57610158903690600401611ba7565b7f25e4229ee368ad63b1bdff8c00b38fac6bfb78fbb3fe3aae36beb769834e77a38060005260008352604060002033600052835260ff60406000205416156104305750604051906101c960ff8251938581818601966101b881838a611bfd565b81016003815203019020541661209f565b6040519160ff600f83516101de818786611bfd565b850194868160029788815203019020015460a81c16156103f35760ff600f6040518681865161020e818389611bfd565b810188815203019020015460b81c1660088110156103dd57600361023291146120eb565b600f60405185818551610246818388611bfd565b81018781520301902001805460ff60b01b1916600160b01b1790556040518251600f919086908290610279818388611bfd565b81018781520301902001600160ba1b60ff60b81b19825416179055604051926102ff60046102ef8786516102ae818a89611bfd565b8801858152888260019a8b930301902001958560405183818b516102d3818388611bfd565b8101848152030190200195604051809481938b51928391611bfd565b820190815203019020019361207f565b916040519060009080549061031382611cbe565b918881169081156103c4575060011461038a575b5050916103798261036c937f33dc239a0943f88803f8891264e47a8b1bc1b4124a65b1bd8c9be5d35cd71ab79503902095604051938493606085526060850190611cf8565b908382038a850152611cf8565b4260408301520390a3604051908152f35b9091506000528660002087876000925b8484106103b257505050908201905061037982610327565b8054848701520191019087899161039a565b60ff191685525050801515028201905061037982610327565b634e487b7160e01b600052602160045260246000fd5b60405162461bcd60e51b8152600481018590526015602482015274151c985b9cd9995c881b9bdd08185c1c1c9bdd9959605a1b6044820152606490fd5b6044906040519063e2517d3f60e01b82523360048301526024820152fd5b600080fd5b3461044e57600036600319011261044e5760206040516127108152f35b3461044e5761014036600319011261044e576004356001600160401b03811161044e576104a1903690600401611ba7565b6024356001600160401b03811161044e576104c0903690600401611ba7565b6044356001600160401b03811161044e576104df903690600401611ba7565b6064356001600160401b03811161044e576104fe903690600401611ba7565b926084356001600160401b03811161044e5761051e903690600401611ba7565b9360a4356001600160401b03811161044e5761053e903690600401611ba7565b60c4356001600160401b03811161044e5761055d903690600401611ba7565b60e4356001600160401b03811161044e5761057c903690600401611ba7565b9060ff60405160208188516105948183858d01611bfd565b810160038152030190205416610985576101043515610940576105b961010435611f3e565b9390926101243562015180818181020481148215171561092a576105de910242611f31565b95604051976105ec89611b6a565b8989528b60208a01528a60408a015260608901528b608089015260a088015260c087015260e0860152610104356101008601526101208501526101408401526101608301526040518060208101106001600160401b03602083011117610914576020810160405260008152610180830152426101a08301526101c082015260006101e0820152600061020082015260006102208201526000610240820152600061026082015260405160208184516106a78183858901611bfd565b81016002815203019020906106bd815183611f70565b6106ce602082015160018401611f70565b6106df604082015160028401611f70565b6106f0606082015160038401611f70565b610701608082015160048401611f70565b61071260a082015160058401611f70565b61072360c082015160068401611f70565b61073460e082015160078401611f70565b61010081015160088301556101208101516009830155610140810151600a830155610160810151600b830155610772610180820151600c8401611f70565b6101a0810151600d8301556101c0810151600e8301556101e0810151600f8301546102008301516102208401516102408501516102609095015194929392151560b01b60ff60b01b169290151560a81b60ff60a81b1691151560a01b60ff60a01b16906001600160a01b031660088610156103dd57600f9560ff60b81b9060b81b16946001600160401b0360c01b161717171717910155604051602081835161081e8183858801611bfd565b81016003815203019020600160ff1982541617905560405160208185516108488183858a01611bfd565b810160048152030190208054680100000000000000008110156109145761087491600182018155611d8e565b9290926108fe576108e16108be6108b8846108b36108d3967f681ea88ed4806ac8a7cf352dbcf5023b2f3a6511a5c11ebcb22b4f3f5df8a12c98611f70565b61207f565b9561207f565b95604051938493608085526080850190611c20565b908382036020850152611c20565b6101043560408301524260608301520390a3602060405160018152f35b634e487b7160e01b600052600060045260246000fd5b634e487b7160e01b600052604160045260246000fd5b634e487b7160e01b600052601160045260246000fd5b60405162461bcd60e51b815260206004820152601d60248201527f416d6f756e74206d7573742062652067726561746572207468616e20300000006044820152606490fd5b60405162461bcd60e51b815260206004820152601a60248201527f5472616e7366657220494420616c7265616479206578697374730000000000006044820152606490fd5b3461044e576109fb6109db36611c45565b908060005260006020526109f6600160406000200154611e18565b611ebc565b005b3461044e57604036600319011261044e576004356001600160401b03811161044e57610a2d903690600401611ba7565b610a496020602435928160405193828580945193849201611bfd565b8101600481520301902090815481101561044e57610a6691611d8e565b6108fe57610a80610a87610a9b9260405192838092611cf8565b0382611b86565b604051918291602083526020830190611c20565b0390f35b3461044e57600036600319011261044e57602060405160008152f35b3461044e5760208060031936011261044e576004356001600160401b03811161044e57610aec903690600401611ba7565b610af4611dbc565b60405190610b1160ff8251938581818601966101b881838a611bfd565b6040519160ff600f8351610b26818786611bfd565b850194868160029788815203019020015460a01c1615610c4b5760ff600f60405186818651610b56818389611bfd565b810188815203019020015460b81c169260088410156103dd5784600f9282610b85610bf694610c1698146120eb565b8460405184818951610b98818389611bfd565b81018581520301902001805460ff60a81b1916600160a81b179055604051865186919085908290610bca818389611bfd565b8101858152030190200180546001600160a01b0319163317905560405186519094859382908590611bfd565b82019081520301902001805460ff60b81b1916600360b81b17905561207f565b604051904282527fe62ae9b0725abc588c66bb560c695a1e9f34936a30a3a112b21144f7a29718eb833393a360405160018152f35b60405162461bcd60e51b815260048101859052601460248201527314185e5b595b9d081b9bdd081d995c9a599a595960621b6044820152606490fd5b3461044e57610c9536611c45565b90600052600060205260406000209060018060a01b0316600052602052602060ff604060002054166040519015158152f35b3461044e57610cd536611c6b565b604051918051610cf460ff6020958681818701956101b8818389611bfd565b7fd56e9b36a6bb6ccf81c326090d5d6b5f0d6a58c2373adc2cf81a508f211cfb3960005260008452604060002033600052845260ff604060002054168015610dfc575b15610dc65790600f610d5885610d7b94604051809381928751928391611bfd565b60029082019081520301902001805460ff60b81b1916600560b81b17905561207f565b7f8e5ead1ea3fa29305e85b40dea4b9c7c259f686e51bc2f46eea45757475f71ec610db160405193604085526040850190611c20565b9242858201528033940390a360405160018152f35b60405162461bcd60e51b815260048101859052600e60248201526d139bdd08185d5d1a1bdc9a5e995960921b6044820152606490fd5b507f25e4229ee368ad63b1bdff8c00b38fac6bfb78fbb3fe3aae36beb769834e77a360005260008452604060002033600052845260ff60406000205416610d37565b3461044e57602036600319011261044e576004356001600160401b03811161044e57610e6e903690600401611ba7565b6040518181809351602081930191610e8592611bfd565b81016002815203602001902060405180610e9f8184611cf8565b03610eaa9082611b86565b6040519182610ebc8160018401611cf8565b03610ec79084611b86565b604051819080610eda8160028501611cf8565b03610ee59082611b86565b6040519081610ef78160038601611cf8565b03610f029083611b86565b6040519182610f148160048701611cf8565b03610f1f9084611b86565b6040519283610f318160058801611cf8565b03610f3c9085611b86565b60405180610f4d8160068901611cf8565b03610f589082611b86565b6040519081610f6a8160078a01611cf8565b03610f759083611b86565b600887015495600988015493600a89015495600b8a01549760405180600c819d0190610fa091611cf8565b03610fab908c611b86565b600d8c01549d600e8d01549c600f01549d6040518060805261028080915260805101610fd691611c20565b6080518082039060200152610fea91611c20565b6080518082039060400152610ffe91611c20565b608051808203906060015261101291611c20565b608051808203906080015261102691611c20565b6080518082039060a0015261103a91611c20565b6080518082039060c0015261104e91611c20565b6080518082039060e0015261106291611c20565b93608051610100015260805161012001526080516101400152608051610160015260805180820390610180015261109891611c20565b926080516101a001526080516101c00152600160a01b6001900381166080516101e001528060a01c60ff16151560805161020001528060a81c60ff16151560805161022001528060b01c60ff1615156080516102400152608051610260019060b81c60ff169061110791611cb1565b60805180910390f35b3461044e57600036600319011261044e5760206040516101f48152f35b3461044e57602036600319011261044e576004356001600160401b03811161044e576020611162611224923690600401611ba7565b600061026060405161117381611b6a565b606081526060858201526060604082015260608082015260606080820152606060a0820152606060c0820152606060e0820152826101008201528261012082015282610140820152826101608201526060610180820152826101a0820152826101c0820152826101e082015282610200820152826102208201528261024082015201526040519061121360ff8251938581818601966101b881838a611bfd565b604051938492839251928391611bfd565b81016002815203019020600f6040519161123d83611b6a565b60405161124e81610a808185611cf8565b835260405161126481610a808160018601611cf8565b602084015260405161127d81610a808160028601611cf8565b604084015260405161129681610a808160038601611cf8565b60608401526040516112af81610a808160048601611cf8565b60808401526040516112c881610a808160058601611cf8565b60a08401526040516112e181610a808160068601611cf8565b60c08401526040516112fa81610a808160078601611cf8565b60e084015260088101546101008401526009810154610120840152600a810154610140840152600b81015461016084015260405161133f81610a8081600c8601611cf8565b610180840152600d8101546101a0840152600e8101546101c0840152015460018060a01b0381166101e083015260ff8160a01c16151561020083015260ff8160a81c16151561022083015260ff8160b01c161515610240830152600860ff8260b81c1610156103dd5760ff9060b81c16610260820152604051809160208252610a9b6102606114d861149061147961146361144d61143761142161140b6113f58c6102a08d519161028060208201520190611c20565b60208c01518d8203601f190160408f0152611c20565b60408b01518c8203601f190160608e0152611c20565b60608a01518b8203601f190160808d0152611c20565b60808901518a8203601f190160a08c0152611c20565b60a0880151898203601f190160c08b0152611c20565b60c0870151888203601f190160e08a0152611c20565b60e0860151878203601f1901610100890152611c20565b610100850151610120870152610120850151610140870152610140850151610160870152610160850151610180870152610180850151601f19878303016101a0880152611c20565b926101a08101516101c08601526101c08101516101e086015260018060a01b036101e082015116610200860152610200810151151561022086015261022081015115156102408601526102408101511515828601520151610280840190611cb1565b3461044e57600036600319011261044e5760206040517f25e4229ee368ad63b1bdff8c00b38fac6bfb78fbb3fe3aae36beb769834e77a38152f35b3461044e5760208060031936011261044e576004356001600160401b03811161044e576115a6903690600401611ba7565b6115ae611dbc565b6040516115ca60ff8351928581818701956101b8818389611bfd565b60ff600f604051858186516115e0818389611bfd565b81016002815203019020015460b81c1660088110156103dd576001036116a65790600f61164e8461167194836040518381885161161e818388611bfd565b60029082019081520301902001805460ff60a01b1916600160a01b17905560405185519093849282908490611bfd565b60029082019081520301902001805460ff60b81b1916600160b91b17905561207f565b604051904282527f4a0f370403b6f657b9932d0dbb4112a9c27507f24cbf0adbb755d2ffc568a0c4833393a360405160018152f35b60405162461bcd60e51b815260048101849052601460248201527314185e5b595b9d081b9bdd081d5c1b1bd859195960621b6044820152606490fd5b3461044e57602036600319011261044e576060611700600435611f3e565b9060405192835260208301526040820152f35b3461044e5761172136611c6b565b60405191805161174060ff6020958681818701956101b8818389611bfd565b82511561187a5760ff600f6040518681865161175d818389611bfd565b81016002815203019020015460b81c1660088110156103dd5761182b576118057f998b7e209a2bb0950565daa74f5d62f356e85a5b65aff0b9294dd52c2a0c61c392600f6117e28761181a956117d189600c60405185818a516117c181838a611bfd565b8101600281520301902001611f70565b604051809381928751928391611bfd565b60029082019081520301902001805460ff60b81b1916600160b81b17905561207f565b92604051918291604083526040830190611c20565b42868301520390a260405160018152f35b60405162461bcd60e51b815260048101859052602160248201527f496e76616c69642073746174757320666f72207061796d656e742075706c6f616044820152601960fa1b6064820152608490fd5b60405162461bcd60e51b815260048101859052601560248201527410da185b1b185b881a185cda081c995c5d5a5c9959605a1b6044820152606490fd5b3461044e57600036600319011261044e5760206040517fd56e9b36a6bb6ccf81c326090d5d6b5f0d6a58c2373adc2cf81a508f211cfb398152f35b3461044e5761190036611c45565b336001600160a01b03821603611919576109fb91611ebc565b60405163334bd91960e11b8152600490fd5b3461044e576109fb61193c36611c45565b90806000526000602052611957600160406000200154611e18565b611e3e565b3461044e57600036600319011261044e576001546040516001600160a01b039091168152602090f35b3461044e57602036600319011261044e576004356001600160401b03811161044e5760ff6119d060206119bd81943690600401611ba7565b8160405193828580945193849201611bfd565b8101600381520301902054166040519015158152f35b3461044e57602036600319011261044e5760043560005260006020526020600160406000200154604051908152f35b3461044e5760208060031936011261044e576001600160401b0360043581811161044e57826119bd611a4b923690600401611ba7565b81016004815203019020805491821161091457829060405192611a73838260051b0185611b86565b8084528284018092600052836000206000915b838310611aed5750505050604051918083019381845251809452604083019360408160051b85010192916000955b828710611ac15785850386f35b909192938280611add600193603f198a82030186528851611c20565b9601920196019592919092611ab4565b6001868192604099989951611b0681610a808189611cf8565b815201920192019190959495611a86565b3461044e57602036600319011261044e576004359063ffffffff60e01b821680920361044e57602091637965db0b60e01b8114908115611b59575b5015158152f35b6301ffc9a760e01b14905083611b52565b61028081019081106001600160401b0382111761091457604052565b90601f801991011681019081106001600160401b0382111761091457604052565b81601f8201121561044e578035906001600160401b0382116109145760405192611bdb601f8401601f191660200185611b86565b8284526020838301011161044e57816000926020809301838601378301015290565b60005b838110611c105750506000910152565b8181015183820152602001611c00565b90602091611c3981518092818552858086019101611bfd565b601f01601f1916010190565b604090600319011261044e57600435906024356001600160a01b038116810361044e5790565b90604060031983011261044e576001600160401b0360043581811161044e5783611c9791600401611ba7565b9260243591821161044e57611cae91600401611ba7565b90565b9060088210156103dd5752565b90600182811c92168015611cee575b6020831014611cd857565b634e487b7160e01b600052602260045260246000fd5b91607f1691611ccd565b9060009291805491611d0983611cbe565b918282526001938481169081600014611d6b5750600114611d2b575b50505050565b90919394506000526020928360002092846000945b838610611d57575050505001019038808080611d25565b805485870183015294019385908201611d40565b9294505050602093945060ff191683830152151560051b01019038808080611d25565b8054821015611da65760005260206000200190600090565b634e487b7160e01b600052603260045260246000fd5b3360009081527f93448e077baa9f1f1990beb53e302494bb36d2fe3a11944845dfdb71d35ac06460205260409020547fd56e9b36a6bb6ccf81c326090d5d6b5f0d6a58c2373adc2cf81a508f211cfb399060ff16156104305750565b80600052600060205260406000203360005260205260ff60406000205416156104305750565b9060009180835282602052604083209160018060a01b03169182845260205260ff60408420541615600014611eb757808352826020526040832082845260205260408320600160ff198254161790557f2f8788117e7eff1d82e926ec794901d17c78024a50270940304540a733656f0d339380a4600190565b505090565b9060009180835282602052604083209160018060a01b03169182845260205260ff604084205416600014611eb75780835282602052604083208284526020526040832060ff1981541690557ff6391f5c32d9c69d2a47ea670b442974b53935d1edc7fd64eb21e047a839171b339380a4600190565b9190820180921161092a57565b906101f480830290838204148315171561092a57611f6792612710611f6c920493848092611f31565b611f31565b8291565b91909182516001600160401b03811161091457611f8d8254611cbe565b601f8111612037575b50602080601f8311600114611fd3575081929394600092611fc8575b50508160011b916000199060031b1c1916179055565b015190503880611fb2565b90601f198316958460005282600020926000905b88821061201f57505083600195969710612006575b505050811b019055565b015160001960f88460031b161c19169055388080611ffc565b80600185968294968601518155019501930190611fe7565b600083815260208120601f840160051c81019260208510612075575b601f0160051c01915b82811061206a575050611f96565b81815560010161205c565b9092508290612053565b61209790602060405192828480945193849201611bfd565b810103902090565b156120a657565b60405162461bcd60e51b815260206004820152601760248201527f5472616e7366657220646f6573206e6f742065786973740000000000000000006044820152606490fd5b156120f257565b60405162461bcd60e51b815260206004820152600e60248201526d496e76616c69642073746174757360901b6044820152606490fdfea2646970667358221220478e023949978d22fb609beb4128597b02b124fa9741bb4d4d06593e0037fa5b64736f6c63430008140033",
  "linkReferences": {},
  "deployedLinkReferences": {}
}